:020000022000DC
:1060000000000120B5620200DD620200DF620200D2
:10601000E1620200E3620200E562020000000000AB
:10602000000000000000000000000000E762020025
:10603000E962020000000000EB620200ED62020073
:106040002D930200EF62020091930200EF620200C2
:10605000EF620200EF6202006D7D0200EF6202005B
:10606000EF620200EF620200EF620200EF620200E4
:10607000EF620200EF620200EF620200EF620200D4
:10608000EF62020069720200EF620200EF6202003A
:1060900009730200EF62020095AA0200EF6202009B
:1060A000EF620200EF620200EF620200EF620200A4
:1060B000EF620200EF62020000000000000000003A
:1060C000EF620200EF620200EF620200EF62020084
:1060D000EF620200EF620200EF62020000000000C7
:1060E00000000000000000000000000000000000B0
:1060F00000000000000000000000000000000000A0
:10610000000000000000000000000000000000008F
:10611000000000000000000000000000000000007F
:10612000000000000000000000000000000000006F
:10613000000000000000000000000000000000005F
:10614000000000000000000000000000000000004F
:10615000000000000000000000000000000000003F
:10616000000000000000000000000000000000002F
:10617000000000000000000000000000000000001F
:10618000000000000000000000000000000000000F
:1061900000000000000000000000000000000000FF
:1061A00000000000000000000000000000000000EF
:1061B00000000000000000000000000000000000DF
:1061C00000000000000000000000000000000000CF
:1061D00000000000000000000000000000000000BF
:1061E00000000000000000000000000000000000AF
:1061F000000000000000000000000000000000009F
:1062000010B5054C237833B9044B13B10448AFF3F0
:1062100000800123237010BD001B0020000000003F
:1062200058BC020008B5034B1BB103490348AFF348
:10623000008008BD00000000041B002058BC0200C4
:10624000154B002B08BF134B9D46A3F5803A002148
:106250008B460F461348144A121A04F0EEFD0F4BFA
:10626000002B00D098470E4B002B00D09847002001
:10627000002104000D000D48002802D00C48AFF3A7
:10628000008004F08BFD2000290004F0C5F804F024
:1062900071FD00BF000008000000012000000000A8
:1062A00000000000001B0020AC23002000000000C4
:1062B000000000000649074A074B9B1A03DD043B18
:1062C000C858D050FBDC02F087FCFFF7B9FF000094
:1062D000FCBC0200A8180020001B0020FEE7FEE71F
:1062E000FEE7FEE7FEE7FEE7FEE7FEE7FEE7FEE786
:1062F000F0B595B0002415460F4608461E4602F03C
:106300009DFB384623460895082205A91A9D099643
:106310000D950A948DF82C400C9402F0E3FB9DF847
:1063200014308DF81140DDE9061003F00302012A54
:10633000CDE9020127D0022A04D0384602F082FBC0
:1063400015B0F0BDBDF81650C3F3C2038DF8103080
:10635000AD090826082D2C4628BF082433462246BE
:106360000EA9384602F0BEFB2D1B214608AB02AA3F
:106370000EA8264400F034FD002DEBD1384602F083
:1063800061FB15B0F0BDBDF81460059DC6F3831622
:10639000C3F3C204B2000EA9384608238DF810409A
:1063A000C5F3952502F09EFB08AB324628460EA9A0
:1063B000009302AB00F06EFC384602F043FB15B0D0
:1063C000F0BD00BF014B01221A707047601B002016
:1063D000704700BF00B583B0044B0093044A4023CC
:1063E000FFF786FF03B05DF804FB00BFF563020012
:1063F000201B002038B50E480E4D03780E4CEB5C88
:106400000025D2B2257053B90C3003F00FFA58B9F9
:106410000A4B1B7813B12378002BFCD038BD043015
:1064200003F048FC0028F3D000F0D8FEF0E700BFEE
:10643000A818002060230020601B00201C1B0020E7
:1064400070B51348134A0378D35C88B0DBB90C30BD
:1064500003F086F9104D0FCD6C460FC495E80F0080
:1064600008AD062645F8206D84E80F002946002275
:10647000074802F0EDFE08B100F0B0FE074B002225
:106480001A7008B070BD043003F0ACFBE2E700BF47
:10649000A81800206023002090B102001C1B0020DF
:1064A00070B50D4D0FCD88B06C460FC495E80F0048
:1064B00008AD062645F8206D84E80F002946074AF6
:1064C000074802F0C5FE08B100F088FE054B012226
:1064D0001A7008B070BD00BF90B10200C563020021
:1064E000A81800201C1B002010B5054CFFF7D8FF92
:1064F0002046042100F08CFB0123637210BD00BF15
:10650000BC180020F0B5314D85B005F5836001F071
:106510001BFA05F2144001F017FAD5E9012702EA47
:106520000704E31C05EB830319788E0701F00400D0
:106530000ED0C8B101F00301012935D0022902F1C2
:106540000200EED15A8800EB921202EA0704E8E753
:10655000561C0028EED159881A8806EB911606EBD6
:10656000921202EA0704DCE705EB8404531CE1689D
:1065700001913B4005EB830301F003010129DE6833
:1065800002F102041AD0022916D1BDF806309B0987
:106590000333360C04EB93040D4801F0E1F900B12C
:1065A0006C60304605B0F0BD1B880232C3F3831324
:1065B0001A4402EA0704B4E70646EDE7BDF80430E2
:1065C000C3F38313360C1C44E6E700BF341C0020E1
:1065D0004820002008B50E4B0E480022FF21C3F8CA
:1065E00018249960C3E90022C3F8142483F82024F6
:1065F00002F0E0F958B9084A084BD21AD20806D07E
:106600000749034621F8233001339A42FAD108BDE5
:10661000341C0020C4BC0200C4BC020064BC0200E4
:10662000CC1A002021B9134A02EBC0000068704761
:1066300030B411490F4C091BC90816D00F4B5A88AA
:10664000824218BF002205D111E0DD88854203F1A6
:10665000040305D001329142F7D1002030BC7047CD
:1066600004EBC200006830BC70470846F6E72046DD
:10667000F8E700BF64BC0200C4BC0200CC1A0020D2
:10668000094B013903EBC00003290BD8DFE801F007
:10669000020806040220704740797047007970476D
:1066A000042070470020704764BC02002DE9F043CD
:1066B00083B002AB002203F8012DDFF8DC9007461F
:1066C00018468846D9F8084001F0DEF8D9E90132C9
:1066D000D9F80060134401339B1B012B58D809F2F1
:1066E0001C450121284601F017F9FFF70BFF014671
:1066F000284601F011F9D9E90132D9F80010134404
:1067000001335B1A012BECD90A4003320523023115
:106710009DF8070049F82230C9F8001001F0DAF8B6
:1067200000211C4801F0EEF880F31000731C234098
:1067300009EB830300043440033440EA1740D86077
:1067400019F8243067F3C50309F8243039F82430E8
:106750006FF3891329F8243059F8242068F39F2215
:106760001346012161F301036FF3820349F82420EA
:1067700009F8243099F820341BB906E000F00EF82F
:1067800018B1D9E900329A42F8D103B0BDE8F083DC
:106790003146B9E750200020341C00202DE9F04795
:1067A0008F4D002384B0C5F81834BFF34F8FD5E95F
:1067B00001462B680CE037B301F0030101294FD0EB
:1067C000022903D15288023404EB9214A34215D952
:1067D00004EA0600C21C05EB8202117811F0030FD7
:1067E00001F00407E7D1002FE6D151881288013467
:1067F00004EB911404EB9214A342E9D800206B60DF
:1068000004B0BDE8F08705EB8000631CC26801920C
:10681000334005EB830302F00302DB680293022A94
:1068200004F1020800F08380012A1FD0D5F810443B
:1068300034B1236820469B6898476468002CF8D1DF
:10684000684B69491888000440F00200FFF72EFFEA
:10685000D5E90030C01A18BF012004B0BDE8F087A8
:1068600012880234C2F383121444AFE7BDF8042047
:106870005E48C2F38313062B28BF062363F38912F5
:1068800002339900ADF8042002F096F88146002802
:10689000CCD002F0D3F83B46082201A9484602F0CA
:1068A000F3F8BDF8043013F4707F00F097806FF0B8
:1068B000010AAAEB040A082406EA08010331234668
:1068C000042205EB8101484602F0DEF8BDF80430F1
:1068D00008F101070AEB0702C3F383139342B8469A
:1068E00004F10404E8D8D5F81834002B6BD1D5F89E
:1068F000104454B1637A20464946002B5FD0236888
:106900001B6898476468002CF4D1484602F09AF856
:1069100004A8002300F80D3D00F0B6FFD5F81834A8
:1069200003B96F609DF8030000F0D4FF90E7BDF855
:1069300006302E489C09502CA24628BF4FF0500A22
:106940006AF38F130AF10801ADF8063002F034F84B
:10695000814600283FF46AAF02F070F83B4626EA11
:1069600008070137082201A94846BF0002F08CF849
:10697000BA4519D95FFA8AF34FB306EA0801DB1B5F
:10698000033105EB8101DEB23A460823484602F0A6
:106990007BF8324607F108031549484602F074F8BF
:1069A000033408EB94079EE706EA0801033105EB80
:1069B000810152460823484602F066F8F0E7646811
:1069C000002C97D1A1E7484602F03CF840E7524638
:1069D00008230749484602F057F8E1E7474682E7AF
:1069E000341C0020E01A0020BCB10200C4BC02002C
:1069F000401C00202DE9F04782B002AB002403F8D0
:106A0000014DDFF8ECA00746184691468846DAF8B3
:106A1000084000F039FFDAE90132DAF80060134487
:106A200001339B1B022B5ED80AF21C45012128462C
:106A300000F072FFFFF766FD0146284600F06CFF8C
:106A4000DAE90132DAF80010134401335B1A022B41
:106A5000ECD90A400332033145239DF807004AF878
:106A60002230CAF8001000F035FFB31C23400AEBB7
:106A7000830300211D48C3F80C9000F043FF80F30E
:106A80001000731C23400AEB8303000434400334DA
:106A900040EA1740D8601AF8243067F3C5030AF8B3
:106AA00024303AF82430012161F389132AF8243084
:106AB0005AF8242068F39F22134661F301036FF311
:106AC00082034AF824200AF824309AF820341BB9AB
:106AD00006E0FFF763FE18B1DAE900329A42F8D116
:106AE00002B0BDE8F0873146B3E700BF5020002078
:106AF000341C00202DE9F04F83B002AD002405F8CE
:106B0000014D3B4C8046284693469A468946A568E7
:106B100000F0BAFED4E90132276813440133DB1BCD
:106B2000032B63D804F21C460121304600F0F4FE2A
:106B3000FFF7E8FC0146304600F0EEFED4E90132F2
:106B40002168134401335B1A032BEDD90A40033249
:106B5000852344F8223004319DF80700216000F0BD
:106B6000B9FEBA1CFB1C2A402B4004EB820204EB4A
:106B7000830300211F48C2F80CB0C3F80CA000F03A
:106B8000C1FE80F310007B1C2B4004EB8303000448
:106B90003D40033540EA1840D86014F8253068F3CA
:106BA000C50304F8253034F82530022262F3891336
:106BB00024F8253054F8252069F39F22134601213B
:106BC00061F301036FF3820344F8252004F82530B4
:106BD00094F820341BB906E0FFF7E0FD18B1D4E9C2
:106BE00000329A42F8D103B0BDE8F08F3946ADE7E4
:106BF000341C002050200020044BD3E900239A428B
:106C000001D0FFF7CBBD0020704700BF341C00202F
:106C100030B4154DD5F81044002154B1237A8B427D
:106C200013D0234602E01A7A8A420ED05B68002B0A
:106C3000F9D10172D5F810347BB15B684360D5F8A7
:106C40001034586030BC0846704701310A29E4D13D
:106C50004FF0FF31084630BC7047C5F81004436060
:106C600030BC0846704700BF341C002038B5084BC4
:106C7000D3F81044012583F820543CB12368657291
:106C800020465B6898476468002CF7D138BD00BF88
:106C9000341C00202DE9F04784B01D460C9C0023D5
:106CA00094F80C802373EB8881460E461746002B20
:106CB00040D1297A05290ED06B7AA88873BB404B46
:106CC00053F821A00021FFF7ADFC524603463D4991
:106CD000204601F0FBFA062F09D8DFE807F0046A26
:106CE0004249525D33004946204601F0EFFA2B7AC3
:106CF000052B05D06B7A5BB93349204601F0E6FAE3
:106D0000204601F0D7FA84F80C8004B0BDE8F08783
:106D10002E4A2F49204601F0D9FAEDE7FFF7B0FCE3
:106D20002C4B2B4953F82020204601F0CFFA297A2A
:106D3000A888C4E7254A00922749284A204601F03E
:106D4000C5FAB6E7D6E90410D6E900230390D6E9E0
:106D500002070291CDE900074946204601F0B6FA44
:106D6000C5E74946D6E90023204601F0AFFABEE761
:106D7000B168D6E9002320460091494601F0A6FA01
:106D8000B5E7D6E90201D6E9002301910090494612
:106D9000204601F09BFAAAE7D6E90371B068D6E96C
:106DA00000230291CDE900074946204601F08EFA02
:106DB0009DE732684946204601F088FA97E700BF10
:106DC0005CB202004CB2020058B2020040B20200B3
:106DD00048B20200E8B1020028B2020020B202006C
:106DE000082900D970472DE9F04F1D469046002331
:106DF0002A7B2B7385B0B8F80630039207460E46FF
:106E0000002B77D198F80810052911D098F809308F
:106E1000B8F80400002B5FD13A4B53F82140002111
:106E2000FFF700FC224603463749284601F04EFA98
:106E3000DFF8F4B0DFF8F490002405E03A5D0134A7
:106E400001F044FA082C09D0A64249462846F5D854
:106E50005946013401F03AFA082CF5D12B49DFF8F4
:106E6000D090DFF8D0B0284601F030FA002411E0CD
:106E700017F804A003F0B6FF50445946437813F0C6
:106E8000970F14BF52462E222846013401F01EFAF5
:106E9000082C08D0A64249462846E9D8013401F01A
:106EA00015FA082CF6D198F80830052B02D098F87E
:106EB00009305BB91649284601F008FA284601F066
:106EC000F9F9039B2B7305B0BDE8F08F114A124905
:106ED000284601F0FBF9EDE7FFF7D2FB0F4B0E4917
:106EE00053F82020284601F0F1F998F80810B8F876
:106EF000040091E7074A009209490A4A284601F02E
:106F0000E5F97FE75CB202004CB2020018B2020061
:106F100058B2020040B2020048B20200E8B10200DA
:106F200028B2020020B2020014B202000CB2020029
:106F300054B202001CB20200434B1978002900F041
:106F400081802DE9F04F002487B001258E4603E0B3
:106F50000134E4B2744560D23C4B27B21E6816F887
:106F600037C0ACF1200205FA02F9394ACCF120030E
:106F7000D2E9000125FA03F349EA030905FA0CF8FE
:106F800000EA080201EA0903134306EBC70BDFD04E
:106F900021EA09032E4920EA08026046C1E90023DC
:106FA00000F0DAFE16F837C0ACF1200205FA02F262
:106FB00001920199CCF12003C6B225FA03F3ACF19A
:106FC0002002194306FA02F30393224B0191D3E9FD
:106FD0000023CDE9042305FA0CF30093CCF1200142
:106FE000039B26FA01F10B43039306FA0CF3029379
:106FF000DDE90467DDE9002316401F4032463B46C9
:10700000DDE90267BB4208BFB24209D00E4B013432
:1070100093F800E0E4B274459ED307B0BDE8F08F6A
:107020009BF80110DBF80430A1F10101B1FA81F104
:107030004909091AB1FA81F14909002BE6D06046E5
:107040009847E3E7704700BF5820002090200020B9
:1070500088200020802000202DE9F84F0646244893
:1070600000F0D8FBD8B9234F0123A6F1200103FA81
:1070700001FBC6F12002D7E9000123FA02F24BEA34
:10708000020B03FA06FA00EA0A0201EA0B031343B1
:1070900007D020EA0A0421EA0B05C7E90045BDE84C
:1070A000F88F304600F058FE134ED6E90089C8B17B
:1070B00048EA0A0349EA0B049846A146D7E90023A7
:1070C0004BEA03050D4B0A4819684AEA02044B468D
:1070D0004246C6E90023C7E900450022BDE8F84F53
:1070E00000F042BB28EA0A0829EA0B09E6E700BFDC
:1070F0006020002088200020802000205C200020CC
:10710000042A36D92DE9F04182B00E4605461446D0
:1071100000F0D8FC002836D01D491E4A1E4B0D60D9
:107120001E481F491C60167000230022741EC0E90F
:107130000023C1E90023E4B2EEB105EBC404194F0A
:10714000083D4FF00008032601E0AC4213D0A378BD
:1071500020788DF806803A4601A98DF804608DF8F4
:10716000053000F0B9FC083C0028EED002B0BDE8C4
:10717000F081072070470C4A0C48002100F0E2FA29
:1071800002B0BDE8F08100F057FC0028C4D0EDE764
:1071900090200020582000205C200020802000202B
:1071A0008820002059700200396F0200C8B2020026
:1071B00070B5084D2B785BB1074E00243368012170
:1071C00013F8340000F066FD2B780134A342F5D8A3
:1071D000002070BD582000209020002000B585B010
:1071E00000230390194601AA44F20100CDE90133BE
:1071F00000F004F805B05DF804FB00BF10B572B6EE
:10720000FFF734FDFFF7F8FC0028FBD1104C1149C3
:107210002088000440F00100FFF748FA0E4B1B687D
:10722000DB0700D500BE20880C49000440F00200B6
:10723000FFF73CFABFF34F8F09490A4BCA6802F4C3
:10724000E0621343CB60BFF34F8F00BFFDE700BF89
:10725000E01A0020CCB20200F0ED00E0D8B202004B
:1072600000ED00E00400FA05F8B5204A204B0024A8
:10727000C2F84041C2F84441C2F84841C2F84C410A
:10728000C2F80041C2F804411B6833B31949D2F86F
:1072900004550A68AD1A1A6825F07F45AA422746A8
:1072A0000DD8197CDE69AD1A144419B11F74D3E9E5
:1072B000052090471EB133461A68AA42F1D90E49FB
:1072C0000E4A0B7812789A4208D00D490D4A41F8BF
:1072D00023404FF48013C2F80031F8BD531CDBB2D9
:1072E000022B08BF00230B70EFE700BF0010014026
:1072F000B4210020B0210020AD210020AC210020CD
:10730000A421002000E100E02DE9F04F8C4A8D49D6
:1073100013780978DFF85082994285B0D8F800A038
:1073200000F07B810133DBB2022B08BF00238648CB
:107330001370864A076852F823107B1823F07F43A6
:1073400000240360534626462046A446ABB11A6883
:107350008A4200F26581DC68C3F800C0891A1044D3
:10736000DA6934B13D1825F07F45C3E90154DE6187
:107370001E4613460124002BE9D1002C40F07C81ED
:1073800001230093724B734FDFF8E09143F0010348
:10739000019355464FF0000B46B3D6E901C1344680
:1073A000F669694B6C481A68ACEB020323F07F4323
:1073B000834248D80B44236000220121C4E9012202
:1073C000E2612174002D5DD02A689A424DD2284690
:1073D00003E00A689A424FD20846C1699B1A002905
:1073E000F7D12360E161C461002ED6D17878397875
:1073F000884264D00B4603EB43034C1CBA7807EB7E
:10740000C303E1B28A421A79397004BF002139708E
:10741000022A9C6844D0032A38D0012AE8D1227C71
:10742000002AE5D1D3F80CC0C4F804C01969A160E2
:107430005869E06099F800009B69A3610028B0D00A
:1074400062609446ADE7A2EB0C0222F07F428A42D2
:1074500002D28B1A2360AFE700230122C4E9003374
:10746000A360E36122746DB12A68C8F80040D31AA2
:107470002B60E56125468FE7D21A0A602360E1613F
:10748000C461B1E7C8F80040254685E7002DAFD0BC
:1074900000232B74ED69002DFBD1C8F80050A5E73F
:1074A0004DB1AC422B4603D1E4E094422FD01346B9
:1074B000DA69002AF9D10023237488429AD1BBF1FA
:1074C000000F01D1554553D0002D56D1234E244AEB
:1074D0001F4C4FF480334FF400310127C2F8801065
:1074E0003C43C6F848334FF43C60C6F80833776035
:1074F000A047154BB7604FF43C601D60A047194B87
:107500001D70002389F8003005B0BDE8F08FA3425C
:1075100000F09180E0692168D861002800F0868041
:107520002A4603680B440360AA424FF000033978EF
:10753000787823741CBF15464FF0010BBDE700BFE0
:10754000AC210020AD210020B0210020A42100208A
:10755000F0B2020094200020FEFF7F0000100140E6
:1075600000E100E0A1210020B4210020A0210020A2
:10757000009B002BC5D0002DA8D0434B434A1C686C
:10758000D2F80465424FD5F800A03978331B23F0B8
:107590007F43DD1CB9B93F493F4B4FF48030C2F8FF
:1075A00044034FF00108C2F804034FF40030C1F85F
:1075B000800143F001030860C2F800804FF43C6092
:1075C000984787F80080AA452CBF04EB0A0363198B
:1075D0002E4923F07F43C1F84035D1F80425921B92
:1075E0009B1B22F07F4223F07F4303329A4288D9CB
:1075F000294BD1F80425C1F8402543F001034FF48D
:107600003C609847234B4FF40032C3F8002100231D
:1076100089F8003005B0BDE8F08F00260096B1E68D
:1076200074BB521A1A6001230093ABE60023397829
:107630007878237441E71946EA69C8F8002092B9BE
:10764000CDE90231114BDFF840C001209860019B69
:1076500089F80000CCF800204FF43C609847DDE941
:107660000231D8F80020C8690968D86100287FF481
:1076700058AF59E72946DFE7C8F800309A467FE659
:10768000C8F800309A46CCE7B02100200010014035
:10769000A121002000E100E0F0B202002DE9F84352
:1076A0001F4D204E204FDFF898804FF480334FF469
:1076B00000324FF001090024C6F8802047EA09078C
:1076C000C5F848334FF43C60C5F80833C5F804905A
:1076D000B847C5F808904FF43C60C8F80040B84778
:1076E000124A134B13491C601470134B134A0C704D
:1076F0000B2114701C8099704FF48012E023C6F89F
:10770000802186F814333260C5F8084586F81133B5
:10771000D5F80435C8F800302046BDE8F88300BF2E
:107720000010014000E100E0F0B20200A1210020C1
:10773000B4210020AC21002094200020AD210020A5
:10774000B0210020074B9B784BB132B128B10368C0
:10775000187C20B959745A61704707207047082077
:10776000704700BF942000202DE9F047264CA378F5
:1077700082B0002B3CD000283AD004293CD9436980
:10778000002B35D0814602A899F811300026012B34
:1077900000F8016D0CBF8846B04617468A4600F0D7
:1077A00073F86378A17822789DF807005D1CEDB22C
:1077B000A94208BF3546AA4222D003EB430304EB9B
:1077C000C3030121114AC3F808901971D2F80425A6
:1077D0006570C3E9032AC3E9058700F07BF80C4B09
:1077E0004FF480123046C3F8002102B0BDE8F087A4
:1077F000082002B0BDE8F087072002B0BDE8F0879E
:1078000000F068F80420F0E7942000200010014008
:1078100000E100E0F0B51A4CA37883B043B338B36D
:1078200043692BB3064602A8002500F8015D3574B4
:1078300000F02AF86278A77821789DF80700531C99
:10784000DBB29F4208BF2B46994214D002EB4202A2
:1078500004EBC202022196601171637000F03AF8E5
:10786000084B4FF480122846C3F8002103B0F0BD46
:10787000082003B0F0BD00F02DF80420F9E700BFA8
:107880009420002000E100E070B4EFF3108472B6A1
:107890000D4B9A68AAB90D490D4E01259D60D1F88E
:1078A000805035401D60C1F88060D1F884505D6023
:1078B0004FF0FF33C1F88430027004B962B670BC77
:1078C000704701230370F8E75423002000E100E033
:1078D000FC06FFBD094B9A687AB170B910B4EFF39A
:1078E000108172B6064A1C6814605C685460986027
:1078F00001B962B65DF8044B70477047542300200D
:1079000000E100E050E8002F0B4640E8003C9CF00E
:10791000000FF7D11046704750E8003F03EB01021B
:1079200040E8002C9CF0000FF6D11046704700BFD5
:1079300050E8003FA3EB010240E8002C9CF0000F50
:10794000F6D11046704700BF012350E8002F42EAED
:10795000030C40E800C191F0000FF6D1604670477B
:10796000002350E800CF0CEA030240E8002191F028
:10797000000FF6D160467047B8B130B4D0E90112BB
:10798000521A0468D2B2531E2160DBB242B10168C0
:107990000A685C1E551C0D601370E3B2FF2BF6D114
:1079A00003680020187130BC70470E20704700BF7C
:1079B000F0B583B002AB002503F8015D044618461C
:1079C000FFF762FFD4E900311A688A4210D9511ECC
:1079D00019602168A3680F6812F8015C0A79A68A09
:1079E000E068DB1BDBB29A4206FB050538BF0B7172
:1079F0009DF80700FFF76EFF284603B0F0BD00BFFB
:107A000030B583B002AB002203F8012D05461846BD
:107A10000C46FFF739FF2A681368591C1160E968A2
:107A2000AA8A641AB4FBF2F41C709DF80700FFF7F1
:107A300051FF03B030BD00BF70B51E4C94F85850D4
:107A400082B0A5BB4FF0FF332946042204F1540055
:107A5000C4E90033C4E90233C4E90433C4E906339A
:107A6000C4E90833C4E90A33C4E90C33C4E90E336A
:107A7000C4E91033C4E91233236503F0DEF90E4B79
:107A80000E4A0F4E1560E02183F806134021C3F81B
:107A9000801119601368019301994FF0004301228E
:107AA000284684F85820C6F8043302B070BD082078
:107AB00002B070BDB821002000E100E07C61004010
:107AC00000600040034B93F85800003018BF0120BD
:107AD000704700BFB8210020F0B56C4B1C1894F91A
:107AE0003050002D68DA8E78C6F340069646002E98
:107AF0005CD11D6A013500F0B58009240C2553F8CE
:107B0000247001375BD004F1010C53F82C7001375D
:107B100000F0B380A71CAF4246D253F827200132B1
:107B200000F0AD8004F1030CAC453DD253F82C704D
:107B3000013700F0A28004F1040CAC4534D253F8B4
:107B40002C70013700F0998004F1050CAC452BD264
:107B500053F82C70013700F0908004F1060CAC450E
:107B600022D253F82C70013700F0878004F1070C03
:107B7000AC4519D253F82C7001377ED004F1080CB3
:107B8000AC4511D253F82C70013776D004F1090CB2
:107B9000AC4509D253F82C7001376ED00A34AC4290
:107BA00002D2DC6A013409D00420F0BD1D68013521
:107BB00067D001240825A2E70820F0BD0B241F1878
:107BC00065B243F824E087F83050002E51D08A780F
:107BD000540714D4D6073BD44C784FF0A04600F598
:107BE000E072A40046F82240294EC40800F0070CB9
:107BF000375D012202FA0CF23A4332558A780C784A
:107C000012F0020209D1083D2B44104693F850208F
:107C100042EA841483F85040F0BDAB0003F1804386
:107C200003F5C0430202D3F8101521F4473121F4C3
:107C30004071C3F810152404D3F8101504F440342F
:107C400002F4F85222430A43C3F810250020F0BD85
:107C5000820002F1A042D2F8004724F00204C2F8E8
:107C60000047C1E7082684F83060C3F820E03546B5
:107C700034461C4484F84800A9E764469FE73C4624
:107C80009DE700251A6084F83050A0E7B821002055
:107C90000C22002070B42E4D2E1883B096F930308F
:107CA000072B1CDD2B4493F848309B09032B41D054
:107CB000012B14BF4FF440314FF40031800000F12C
:107CC000A040D0F8002722F44032C0F80027D0F8B6
:107CD00000370B43C0F8003703B070BC7047DAB20E
:107CE000072AF9D8980000F1804000F5C04003F160
:107CF0004002D0F81045920092B244F0010402F123
:107D00008042C0F8104502F5C04200200190019C5D
:107D100010600029E0D096F9302055F82220002A82
:107D2000DAD001220B4902FA03F3C1F8043303B09D
:107D300070BC70474FF0A043D3F81035C34013F028
:107D4000010F0CBF4FF400314FF44031B6E700BFD4
:107D5000B8210020006000404FF0A043D3F8103558
:107D600023FA00F000F00100704700BF2DE9F04158
:107D700086B00023A14A01931668012E00F05481B9
:107D80001E469F4B1A68012A00F05D819D4B1A68C0
:107D9000012A00F06A819C4B1A68012A00F0778161
:107DA0009A4B1A68012A00F08481994B1A68012ABB
:107DB00000F09181974B1A68012A00F09E81964B42
:107DC0001A68012A0CD0954B1B68012B00F0A58185
:107DD00016F0FF0F15D1002E30DB06B0BDE8F081A4
:107DE0008F4AD2F804231706EDD500221A601A68CC
:107DF00004926033049A1B68012B46F0800600F061
:107E00008C81884F00240125A30003F18043354273
:107E100003F5C0434FEA45050BD0D3F8100557F8DA
:107E20002420D3F81015C0F30420C1F3014102B19E
:107E300090470134082CE7D1002ECEDA00224FF013
:107E4000FF33CDE90223774C012602AF94F950307D
:107E50005D1C2CD0DBB223F0C00006AA4FEAD00C88
:107E600002EB0C0E03F007021EF80C1C06FA02F2DD
:107E700011421CD02518990995F9303054F8233057
:107E8000002B00F09881032900F098814FEA800CC4
:107E90000CF1A04C1EF8145CDCF800E71540CEF3A2
:107EA000014E40F05C81BEF1030F00F0DE81002541
:107EB00094F95130581C2DD0DBB223F0C00006AA33
:107EC0004FEAD00802EB080E03F007011EF80C2C55
:107ED00006FA01FC12EA0C0F1CD02218990992F93B
:107EE000303054F82330002B00F05B81032900F080
:107EF0005B81820002F1A0421EF8148CD2F800E7E8
:107F000018EA0C0FCEF3014E40F03681BEF1030F9C
:107F100000F0A68194F95230591C2DD0DBB223F029
:107F2000C00006AA4FEAD00802EB080E03F00701D2
:107F30001EF80C2C06FA01FC12EA0C0F1CD02218B9
:107F4000990992F9303054F82330002B00F03C812D
:107F5000032900F03C81820002F1A0421EF8148C3B
:107F6000D2F800E718EA0C0FCEF3014E40F0E380A0
:107F7000BEF1030F00F06E8194F953305A1C2DD0DE
:107F8000DBB223F0C00006AA4FEAD00802EB080ECD
:107F900003F007011EF80C2C06FA01FC12EA0C0F84
:107FA0001CD02218990992F9303054F82330002B54
:107FB00000F0ED80032900F0ED80820002F1A04284
:107FC0001EF8148CD2F800E718EA0C0FCEF3014E1D
:107FD00040F0BC80BEF1030F00F00081002D3FF4A3
:107FE000FCAE4FF0A043019AD3F8103593423FF412
:107FF000F4AE029A0193039228E700BF00610040AB
:1080000004610040086100400C61004010610040C4
:1080100014610040186100401C6100407C61004018
:1080200000600040B82100209A49D1F8041311F0F3
:10803000010170D0136013680493049B964B1A6877
:10804000012A7FF4A3AE934AD2F8042397077FF561
:108050009DAE00221A601B680493049B8F4B1A6824
:10806000012A46F002067FF496AE8A4AD2F804232B
:1080700055077FF590AE00221A601B680493049B9D
:10808000874B1A68012A46F004067FF489AE814ABC
:10809000D2F8042314077FF583AE00221A601B6810
:1080A0000493049B7F4B1A68012A46F008067FF46C
:1080B0007CAE784AD2F80423D0067FF576AE002253
:1080C0001A601B680493049B774B1A68012A46F0D8
:1080D00010067FF46FAE6F4AD2F8042391067FF545
:1080E00069AE00221A601B680493049B6F4B1A68E8
:1080F000012A46F020067FF462AE664AD2F80423D5
:1081000052067FF55CAE00221A601B680493049B44
:1081100046F0400653E60E4633E6654B00221A60F1
:108120001B6805934FF0A043059AD3F810350193CF
:1081300046F000464CE6BEF1020F7FF41DAF032966
:1081400063D0002B3FF418AF984715E7BEF1020F3C
:108150007FF444AF032969D0002B54D13EE7BEF130
:10816000020F7FF4A4AE032900F091800025002BBC
:108170003FF49EAE98479BE6BEF1020F7FF4CAAE75
:10818000032956D0002B3FF4C5AE9847C2E6032919
:108190007FF424AF17F8082042EA0C0207F8082001
:1081A0000BE703297FF4B6AE17F8082042EA0C0269
:1081B00007F808209DE603297FF479AE17F80C50E4
:1081C000154307F80C5061E603297FF4D5AE17F884
:1081D000082042EA0C0207F80820BCE60329BBD1BC
:1081E0004FF4003ED2F800C72CF4403CC2F800C760
:1081F000D2F800C701354CEA0E0CEDB2C2F800C748
:10820000002B3FF4EEAE9847E8E64FF4403ED2F83C
:1082100000C72CF4403CC2F800C7D2F800C70135B3
:108220004CEA0E0CEDB2C2F800C78AE74FF4403EAC
:10823000D8E74FF4403ED2F800C72CF4403CC2F8D7
:1082400000C7D2F800C701354CEA0E0CEDB2C2F8F7
:1082500000C797E703297FF474AF4FF4003ED6E7D9
:1082600003298FD14FF4003EE5E703297FF47FAF68
:108270004FF40035DCF8002722F44032CCF8002718
:10828000DCF800272A43CCF8002701256FE74FF4DC
:108290004035EFE7006000400461004008610040A5
:1082A0000C61004010610040146100401861004002
:1082B0007C610040826842B110B5044643690168A0
:1082C000006998470023A36010BD70470EB400B545
:1082D00082B0039929B102AA04AB42F8043D00F030
:1082E0008BF802B05DF804EB03B070472DE9F84F4E
:1082F00088469045174605461E46DDE90AB175D306
:1083000043464FF00109B3FBF7F39F4209F101091E
:10831000F9D9B14538BFB14611F0010AAA6802D1B6
:10832000BBF1000F43D1012402E0013E07FB04F43E
:10833000012EFAD8B8FBF4F18F42F7D92D4E05E0A3
:10834000B4FBF7F4A4B1B8FBF4F1AA68705C531C59
:10835000AB602B689854D5E901329A4204FB11882E
:10836000EED32846FFF7A6FFB4FBF7F4002CEAD1C2
:10837000BAF1000F15D0BBF1000F12D0CB4510D9C8
:108380002024AB682A68591CA960D454D5E901326D
:108390009A420BF1FF3B06D2BBF1000F01D0CB4557
:1083A000EFD1BDE8F88F2846FFF784FFF4E78B078D
:1083B00017D42024CB45B6D92B68511CA9609C54F6
:1083C000D5E901329A420BF1FF3B05D2BBF1000F18
:1083D000A9D0CB45F0D1A6E72846FFF76BFFAA68E6
:1083E000F4E7002E0CBF30242024E3E74FF001090E
:1083F0008FE700BF00B30200002900F0F4812DE9EF
:10840000F04F054685B092460C460B78DFF8A0B5D4
:1084100001E0237893B1013483B1252B15D0AA68EC
:108420002968501CA8608B54D5E901329A42F0D3D8
:108430002846FFF73FFF2378002BECD12B7B002B46
:1084400040F0148105B0BDE8F08F2146002711F8F7
:10845000012B2D2A00F0E180302A00F0E2802B2A47
:1084600000F0D2802A2A00F0E080A2F13006F3B2B8
:10847000092B03D9B8E1A3F130060146084606EB03
:10848000860310F8012BA2F13004092C02EB430300
:10849000F1D92E2A00F0D5800023013101E011F836
:1084A000012B02F0FB0068280C46F8D0253A532A2D
:1084B000AFD801A151F822F079860200138402009E
:1084C0001384020013840200138402001384020048
:1084D0001384020013840200138402001384020038
:1084E0001384020013840200138402001384020028
:1084F0001384020013840200138402001384020018
:108500001384020013840200138402001384020007
:1085100013840200138402001384020013840200F7
:1085200013840200138402001384020013840200E7
:1085300013840200138402001384020013840200D7
:1085400013840200138402001384020013840200C7
:1085500013840200138402001384020013840200B7
:1085600013840200138402001384020013840200A7
:108570001384020013840200138402001384020097
:108580001384020093860200138402001384020005
:108590001384020013840200138402001384020077
:1085A0001384020013840200138402001384020067
:1085B000AD860200CF8602001384020013840200FD
:1085C0001384020013840200CF8602001384020089
:1085D0001384020013840200138402001384020037
:1085E000138402001F870200138402001384020018
:1085F0009387020013840200CD87020013840200D7
:10860000138402009386020047F004070C462146BB
:1086100011F8012B2D2A7FF41FAF47F001070C46FC
:10862000F5E747F002070C46F1E7DAF800301A1DCB
:10863000CAF8002062781E682E2A04F102007FF436
:108640002BAF4A78A2F13003092B00F250810023AE
:1086500003EB830302EB430310F8012FA2F1300177
:108660000929A3F13003F3D9014616E7284605B0DE
:10867000BDE8F04FFFF71EBEAB682A68591CA96021
:108680004FF02501D154D5E901329A42FFF4C1AE31
:10869000CEE6DAF80020111DCAF80010116828464D
:1086A000CDE900671022FFF721FEB2E6DAF80020DC
:1086B000131DCAF80030AB6829681278581CA860EE
:1086C000CA54D5E901329A42FFF4A3AEB0E6DAF813
:1086D0000020111DCAF80010D2F8008088EAE87264
:1086E000A2EBE872092A4FF0010107DDAF48A0FBB9
:1086F0000202D208092A01F10101F7DC994238BFD0
:108700001946894607F00202002E71D12AB1002BCA
:1087100000F04781FA0700F18D8000268AE0DAF840
:108720000020131DCAF80030AB6829681768581C70
:108730003022A860CA54D5E90123934280F02881F1
:108740002A68581C7821A860D154D5E901239342A6
:1087500080F019810F2F03D93A4612090F2AFCD84D
:108760004FF0805603E036093FF453AEAB682968FA
:10877000B7FBF6F2581CA8601BF80200C854D5E9F4
:108780000131994206FB1277EDD32846FFF792FD9F
:10879000E9E7DAF800301A1DCAF80020D3F80080A3
:1087A000FB077ED54746A7EB080917F8013B002BCE
:1087B0005DD0AA682968501CA8608B54D5E90132A5
:1087C0009A42F0D32846FFF775FDECE7DAF800206F
:1087D000111DCAF8001011682846CDE900670A2269
:1087E000FFF784FD15E6704708460026214650E64F
:1087F000B8F1000F01DB780700D5013E02B1CBB123
:10880000F90717D4002E88D0B14513D22022039344
:10881000A9682B68481CA8605A54D5E901319942CF
:1088200006F1FF365DD2002E00F0BD80B145EFD1DC
:10883000039B4E46B8F1000FC0F292807A070AD52A
:10884000A9684A1CAA602A682B205054D5E9012146
:10885000914280F0928007F00302022A5FD0CDE9B6
:10886000006741460A222846FFF740FDD1E54E4504
:108870007FF6CFAD202705E04E453FF4CAAD002E70
:108880003FF4C7ADAB682A68591CA960D754D5E935
:1088900001329A4206F1FF36EED32846FFF70AFD71
:1088A000EAE7B8F1000F24D0404602F0CEFA0746BE
:1088B000BE4220D9FEB14FF0200902E0BE421AD0DC
:1088C000CEB1AB682A68591CA96002F80390D5E9BB
:1088D00001329A4206F1FF36F0D32846FFF7EAFC50
:1088E000ECE728460292FFF7E5FC029A9BE7014677
:1088F000D2E54746DCE708F1FF3818F8013F002BC6
:108900003FF487ADAA682968501CA8608B54D5E94C
:1089100001329A42F1D32846FFF7CCFCEDE7002B59
:108920009DD1002E3BD0B14599D2029323464C46AF
:108930009946AA682B68501C4FF03001A8609954E2
:10894000D5E901329A4206F1FF3605D22EB3B44280
:10895000EFD1029B4C4682E72846FFF7ABFCF5E7D8
:10896000A9684A1CAA602A682D205054D5E9012123
:108970009142C8F10008FFF46EAF28460293FFF75A
:1089800099FC029B67E72846FFF794FCAB68E1E699
:108990002846FFF78FFCAB68D2E6029B4C460026C8
:1089A0005DE71E4646E7039BB7E600BFCDCCCCCCC7
:1089B00000B30200FEF7E0BF2DE9F041858ACE1C2E
:1089C000043D2E440746B6FBF5F6FEF7F1FF78B3FB
:1089D000F6B24FF48073013E0446C5800760838081
:1089E00027D08046002509E06379AE4203F10103F8
:1089F0006371C8F80000076080461AD03846FEF759
:108A0000D7FF01350028EFD16679721E14D02346B6
:108A1000013082421B68FBD11F684EB100252368DC
:108A20002146013538461C46FEF7EAFFAE42F6D134
:108A300000242046BDE8F0812768EFE704300121DB
:108A4000FEF76ABFF8B5012104460430FEF770FF57
:108A5000C0B200B1F8BD6679721E12D02346013053
:108A600082421B68FBD11F68002EF3D000252368CB
:108A70002146013538461C46FEF7C2FFAE42F6D10C
:108A8000F8BD2768F2E700BF2DE9F8430446181D3A
:108A9000E688B0FBF6F30F46904606FB130013B1D1
:108AA000013B2468FCD1351A454528BF4546B8F13D
:108AB000000F15D04FF000090430A8EB0508204442
:108AC0002A4607EB090102F0ADF94645A94424689E
:108AD00035464FF0000028BF4546B8F1000FEBD1F6
:108AE000BDE8F8832DE9F843C688043304460F46F1
:108AF000B3FBF6F0904606FB103110B10138246844
:108B0000FCD1751A454528BF4546B8F1000F15D070
:108B10004FF0000904312144A8EB05082A4607EB71
:108B2000090002F07FF94645A944246835464FF014
:108B3000000128BF4546B8F1000FEBD1BDE8F8832E
:108B400001600B6843604A68934204BF002343609E
:108B5000704700BF436843B1026891680B444360AB
:108B60005268934204BF00234360704730B4184DED
:108B7000A5F59472AB1ADB1003EBD3735B1002EB19
:108B8000C30152F83330984228BF0C4605D311E098
:108B900052F8333098420CD221468B1ADB1003EB8B
:108BA000D3735B108A4202EBC304F1D3094830BC93
:108BB00070470D46984204D904F10802AA42D9D35D
:108BC000F4E76068034B002808BF1846EFE700BFD2
:108BD00058B402001CB3020030B4904B1B78062B33
:108BE00020D08F4B1B68062B00F085808D4AD2F871
:108BF000883043F47003C2F88830BFF34F8FBFF35F
:108C00006F8F4FF01023D3F80022002AC0F2868124
:108C1000D3F80432002BC0F28181834B834A1A605F
:108C200030BC7047824B1B681D07DAD1814B1B6833
:108C300003F0F002302A00F09E8003F0E003402BA6
:108C400000F099807B4B1B6803F0F003302B00F0A1
:108C5000B980784B1B6803F0F002302A56D003F03D
:108C6000E003402B52D0734B1B6803F0F003302B12
:108C700000F0B6806F4B1B6803F0F002302A66D01C
:108C800003F0E003402B62D06A4B1B6803F0F00353
:108C9000302B00F0B580674B1B6803F0F003302BDE
:108CA00079D0644B1B6803F0F003502B00F0E48094
:108CB000604B1B6803F0F002302A37D003F0E0036A
:108CC000402B33D05B4B1B6803F0F002302A03D0FB
:108CD00003F0E003402B84D14FF08043D3F800240D
:108CE000D20744BF6FF00102C3F800244C4B1B684D
:108CF000062B7FF47BAF504B1B68062B7FF476AFBF
:108D00004E4A136843F4806313606FE74C4B434A49
:108D10001B6812784B49C3F34233062A0B6048D1D3
:108D2000434B1B6819077FF45CAF9CE7464A3B4BFB
:108D300012681B78454902F04F02062B0A607FF447
:108D400050AF3B4B1B6819077FF44BAFBAE74FF0AE
:108D500080430022C3F80C21C3F81021C3F8382542
:108D60002E4B1B78062B7FF43CAF314B1B681B0747
:108D70007FF437AF88E7364B284A1B6812783549AD
:108D8000C3F30423062A0B60EAD1294B1B681C0796
:108D90007FF427AF56E7304C204A304912783048EC
:108DA000304B0525256001250D6000243F2104601E
:108DB0001960062A7FF415AF1D4B1B681C077FF452
:108DC00010AF6EE7154B284A1B7828491160062B17
:108DD0007FF407AF164B1B6818077FF402AF38E724
:108DE00023490E4BCA681B7822F08072062BCA609A
:108DF0007FF4F7AE0E4B1B681A077FF4F2AE39E72B
:108E0000064B1C4A1B780321062B11607FF4E9AE48
:108E1000074B1B681D077FF4E4AE3CE7E00F00F052
:108E20003001001000ED00E0C81800200090D003D1
:108E3000E40F00F0E80F00F0340100103C17004090
:108E4000440200103C05004058020010E40E0040AF
:108E50002403001040350140105600408856004061
:108E6000185600401456004074C007400DF0ADBACB
:108E7000F0ED00E0A00500404FF08053404AD3F8E9
:108E80000414C2F82015D3F80814C2F82415D3F836
:108E90000C14C2F82815D3F81014C2F82C15D3F806
:108EA0001414C2F83015D3F81814C2F83415D3F8D6
:108EB0001C14C2F84015D3F82014C2F84415D3F896
:108EC0002414C2F84815D3F82814C2F84C15D3F866
:108ED0002C14C2F85015D3F83014C2F85415D3F836
:108EE0003414C2F86015D3F83814C2F86415D3F8F6
:108EF0003C14C2F86815D3F840142248C2F86C1527
:108F0000D3F844140378C2F87015062B7FF469AEC9
:108F10001D4B1B6818077FF464AEC9E61B4B01228A
:108F2000C3F80425D3F80024002AFBD04FF0102307
:108F300015221649C3F80022D1F80034002BFBD0CB
:108F40004FF010221521114BC2F80412D3F800245F
:108F5000002AFBD000220D49C3F80425D1F80034C3
:108F6000002BFBD0BFF34F8F09490A4BCA6802F4AC
:108F7000E0621343CB60BFF34F8F00BFFDE700BF3C
:108F800000C00040E00F00F0E40F00F000E00140FE
:108F900000ED00E00400FA05054A4FF0A043105C24
:108FA000D3F8043523FA00F0C04300F00100704705
:108FB00044B80200044B195C4FF0A04201238B40DF
:108FC000C2F80C35704700BF44B80200044B195C6E
:108FD0004FF0A04201238B40C2F80835704700BF14
:108FE00044B802004FF0A04310B44FF480708024C6
:108FF0004FF400614FF48052C3F80845C3F80805E8
:10900000C3F80815C3F808255DF8044B704700BF86
:109010004FF0A04310B44FF4807080244FF40061EF
:109020004FF48052C3F80C45C3F80C05C3F80C1577
:10903000C3F80C255DF8044B704700BF074B4FF099
:10904000A041185CD1F804350122824022EA0300D5
:109050001340C1F80805C1F80C35704744B8020048
:109060000D2809D00E2809D00F2809D010280CBFD0
:1090700003204FF0FF3070470020704701207047F9
:1090800002207047C20730B419D54FF0A043032225
:10909000C3F81C278025C3F820274FF48074C3F839
:1090A0002C274FF40061C3F830274FF48052C3F8E7
:1090B0000855C3F80845C3F80815C3F80825830701
:1090C0000AD54FF0A0430C22C3F83427C3F8382741
:1090D000C3F83C27C3F8402730BC704710B570B1C7
:1090E00001280BD10D4C2369A0703BB1D3E90023BB
:1090F0000120226198472369002BF7D110BD074C4E
:10910000A36801226270002BF8D0D3E9002300206D
:10911000A2609847A368002BF7D1EFE71422002044
:1091200070B910B5074CA368012262703BB1D3E956
:1091300000230020A2609847A368002BF7D110BD40
:10914000704700BF1422002030B5012883B01CD026
:1091500015D3032811D100F0C9F802A800231F4C31
:1091600000F8013DFEF790FBE368013BE360E56832
:1091700065B39DF80700FEF7ADFB03B030BD184B9B
:109180000122C3F8802003B030BD02A80023134C95
:1091900000F8013DFEF778FB237853B1E3689DF8B2
:1091A000070001330122E360A270FEF793FB03B0D6
:1091B00030BD0C486360A3602361E36000F088F871
:1091C00001F062FC30B101232370E7E700F0A2F860
:1091D000A570CEE700F08AF8F5E700BF1422002062
:1091E00000E100E0DD90020030B585B00478094A66
:1091F000094B45688DF80040047AC068039053F825
:10920000213001958DF8084052F8211068469847A2
:1092100005B030BD282200202C22002030B585B0BA
:10922000047845688DF80040D0E90240064A074BB3
:10923000039053F8213001958DF8084052F8211021
:109240006846984705B030BD282200202C22002017
:10925000F0B51A4B06781A4D0C6991F81DE045F8E7
:1092600026400746174803F806E040F826200C463B
:1092700094460FCC89B06D460FC594E80F0085E881
:109280000F000496BEF1000F0BD0BCF1000F0E4A88
:10929000694607F1040008BF002200F0C1FB09B0D5
:1092A000F0BDBCF1000F094A694607F10C0008BF88
:1092B000002200F083F909B0F0BD00BF6023002058
:1092C000282200202C220020E99102001D92020099
:1092D000054A13792BB90121106053711846117199
:1092E00070478520704700BF30220020084B1A6865
:1092F000D20706D40122E02183F80013C3F88021AD
:109300001A604FF080430122C3F81825704700BF50
:1093100000E100E0044B01221A604FF08042D2F8D5
:109320001834DB03FBD470470C00004010B5154B1C
:109330001A6882B07AB10021134A19601B6850790B
:1093400000934FF080410123009CC1F8083310B90D
:109350001168537188470D4B1A6882B100221A6058
:109360001B6801934FF080420221074B0198C2F81D
:1093700008131B68012002B0BDE81040184702B076
:1093800010BD00BF00010040302200200401004059
:10939000014B1B68184700BF38220020104B984231
:1093A00001D00020704730B583B002A8002300F838
:1093B000013D0D46FEF768FA0A4B1C7934B19DF861
:1093C0000700FEF787FA112003B030BD01229DF897
:1093D00007001D601A71FEF77DFA2046F4E700BF12
:1093E0000020004038220020034B984203D1034B59
:1093F00000221A601A7170470020004038220020B5
:1094000030B56C4AD2F8043399058BB066D5D2F8E2
:109410002431002B62D00023C2F82431D2F8243149
:1094200003934FF40171644B0398C2F8081393F847
:10943000291009B9012151605E4902228DF81820D6
:10944000D1F88024C1F880249869D9680992002253
:10945000CDE90710C3E90622D3E9001406A8A04706
:10946000544AD2F81C31BBB1534B186A596988422F
:1094700069D350480022C0F81C21D0F81C0101908B
:10948000019849B198688DF8182008915A610790A1
:10949000D3E9001206A89047464AD2F84431DBB11E
:1094A0000021454BC2F84411D2F8440193F8291029
:1094B0000090009809B1012111609A6962B10022FF
:1094C000586AD9689A610122CDE907108DF81820F1
:1094D00006A8D3E9001290470BB030BD354AD2F848
:1094E00004335B07BCD5D2F80831002BB8D0324B1F
:1094F000996900293CD00021C2F80811D2F808115E
:1095000004910499D868596AD2F8182542545A6AC5
:10951000996901325A625A6A8A42A1D1DA69196894
:10952000002A2ED0D8685D6A1C699A6107900022D3
:109530000120DC60DA615A628DF8180008955B68DA
:1095400006A898478CE793F8280000F0FF0400284D
:109550008FD1C2F81C41D2F81C11029102999C686B
:10956000186A196A205C01311962C2F81C0593E778
:10957000C2F80811D2F8080105900598D2F818250C
:10958000C9E793F8292012B90A4A01205060094A14
:109590004FF40170C2F80803586ADA680890002492
:1095A000012007928DF818005A689C6106A8904720
:1095B00056E700BF00200040402200202DE9F04186
:1095C000DFF8988107792C2606FB078682B096F88B
:1095D0002A30002B40F08F800D4604465C4900681D
:1095E0001646FFF7DBFE002840F081802B68591CEF
:1095F0000CD001224FF0A04102FA03F3C1F8083564
:109600002B6803F5E073032241F823206B685A1C92
:1096100006D003F5E0734FF0A042002142F823107A
:109620002368AA69C3F82425297D6B7D22680B4332
:10963000C2F86C35D5E900122368C3F81425C3F8C5
:109640000C152B7D012B5AD02C2303FB07F308EBC1
:10965000030256602A6948F80320002E34D022689D
:109660002B7F3C4D0021C2F81C11D2F81C21009226
:109670002268009EC2F84411D2F844112268019178
:109680000199C2F804532168090B4AB25B01002A10
:10969000DBB256DB02F1604202F5614282F8003330
:1096A0002268120B42F3C40323F0604323F0030348
:1096B00003F1604303F5614302F01F02012101FA47
:1096C00002F2C3F880211A602C23246803FB07836D
:1096D000002204250121C4F8005583F82A10C3E9AB
:1096E000062283F829205A6102B0BDE8F0811120DA
:1096F00002B0BDE8F081082002B0BDE8F081AB689F
:10970000591C06D003F5E0734FF0A042002142F847
:109710002310EB685A1C0DD001224FF0A04102FA31
:1097200003F3C1F80835EB6803F5E073032241F851
:109730002320EB682268A968C2F80835C2F8101522
:1097400082E7054A01F00F010A441376A8E700BF3B
:109750000194020080000200FCEC00E040220020A6
:10976000F8B52F4D047902682C2303FB0453002124
:109770005B68C2F8001583B103682A4AC3F808235E
:109780000368294E1B0B5AB25209203203F01F0303
:10979000012101FA03F346F8223003684FF0FF324B
:1097A000D3F80CC5D3F81475D3F80815D3F81065A1
:1097B000C3F81425C3F80C2503689445C3F808259D
:1097C000C3F8102506D00CF5E07C4FF0A043022230
:1097D00043F82C207B1C06D007F5E0774FF0A04320
:1097E000022243F82720721C06D006F5E0764FF0DF
:1097F000A043022243F826204B1C06D001F5E0715D
:109800004FF0A043022243F821200068FFF7ECFD4F
:109810002C2303FB0454002384F82A306360F8BD32
:10982000402200208402020000E100E0F0B5314E49
:1098300005792C2303FB056385B05C69002C53D1AB
:109840001C62996083F828405A610268C2F81C4182
:10985000D2F81C11026802910121029F91600268F6
:10986000D3F808C0C2F81C41D2F81C11019101992B
:10987000D3F820E0196A5F681CF80EE00131196224
:10988000C2F81CE517B1204605B0F0BD1A6A5C6944
:109890000168944203D819E093F828203ABBD1F824
:1098A0001C21002AF8D0C1F81C71D1F81C210392A8
:1098B000039AD3F820E01A6A1CF80EE001321A620B
:1098C000C1F81CE51A6AA242E9D30168D1F81C313B
:1098D000002BFBD00123CB6000202C2303FB05656C
:1098E00000236B6105B0F0BD112005B0F0BD0F2065
:1098F000F3E700BF40220020F0B5474BD3F8242106
:1099000089B0002A54D00021C3F82411D3F82421AF
:10991000029202228DF81020029AD3F880043F4A66
:10992000C3F880040790D3F83C05D3688DF818007D
:10993000C2E9061105931168536804A89847364B8D
:10994000D3F84421BAB10020344AC3F84401D3F813
:10995000444191690194019C69B1D3F83C458DF86B
:109960001840D368906101240593116853688DF8FD
:10997000104004A89847284BD3F82021B2B1002109
:10998000264AC3F82011D3F8204150690094009C66
:1099900060B1D3F84C0593688DF818008DF810105D
:1099A0005161059304A8D2E90013984709B0F0BDAE
:1099B000D3F810110029C2D0C3F81021D3F8101128
:1099C0001648039103998169D3F83C458C42B6D17E
:1099D000C569C768D0E90016E4B295B1D3F800C2F2
:1099E00085612CF02005C261C3F800520369C36091
:1099F00001228DF8184005978DF8102004A8B04773
:109A00009DE7012385618DF8184005978DF810308A
:109A100004A8B04793E700BF002000406C2200205C
:109A20002DE9F04307796B4E4FEAC70808EB0703AF
:109A300006EB830385B093F82030002B40F09E8026
:109A40000D460446644900689146FFF7A7FC0028CC
:109A500040F090802B68591C0CD001224FF0A0419F
:109A600002FA03F3C1F808352B6803F5E07303220B
:109A700041F823206B685A1C06D003F5E0734FF0C1
:109A8000A042002142F823102368AA69C3F82425C4
:109A9000297D6A7D23680A43C3F86C25D5E9003126
:109AA0002268C2F80C35C2F814152B7D012B69D041
:109AB00008EB07029200B318C3F804902B69B35067
:109AC000B9F1000F45D021682B7F444D0022C1F829
:109AD0001021D1F8101100912168DDF800C0C1F803
:109AE0002021D1F8201101912168DDF804C0C1F8CE
:109AF0002421D1F8241102912168DDF808C0C1F8B1
:109B00004421D1F84411226803910399C2F8045307
:109B10002168090B4AB25B01002ADBB254DB02F177
:109B2000604202F5614282F800332268120B42F370
:109B3000C40323F0604323F0030303F1604303F500
:109B4000614302F01F02012101FA02F2C3F88021F1
:109B50001A604744226806EB870600230124082187
:109B600086F82040C2F80015C6E90633736105B0D7
:109B7000BDE8F083112005B0BDE8F083082005B0F2
:109B8000BDE8F083AB68591C06D003F5E0734FF0D5
:109B9000A042002142F82310EB685A1C0DD001228C
:109BA0004FF0A04102FA03F3C1F80835EB6803F562
:109BB000E073032241F82320EB682268A968C2F809
:109BC0000835C2F8101573E7054A01F00F010A4481
:109BD0001376AAE76C220020F99802001003020015
:109BE000FCEC00E0F8B506792F4C0268F500AB19E3
:109BF00004EB830300215B68C2F8001583B103689E
:109C00002A4AC3F808230368294F1B0B5AB252098A
:109C1000203203F01F03012101FA03F347F8223039
:109C200003684FF0FF32D3F80CE5D3F814C5D3F82E
:109C30000815D3F81075C3F80C25C3F8142503686C
:109C40009645C3F80825C3F8102506D00EF5E07E2A
:109C50004FF0A043022243F82E20BCF1FF3F06D074
:109C60000CF5E07C4FF0A043022243F82C207A1C34
:109C700006D007F5E0774FF0A043022243F82720F3
:109C80004B1C06D001F5E0714FF0A043022243F8CF
:109C90002120354404EB85040068FFF7A5FB002371
:109CA00084F820306360F8BD6C22002010030200AD
:109CB00000E100E001F06043B3F1005F2CD1F0B5AA
:109CC0000679234F4FEAC60C0CEB060407EB84041D
:109CD00083B0636913BBA16062610568C5F8203178
:109CE000D5F820E10568CDF804E0DDF804E0C5F81A
:109CF0005831D5F858E10568CDF800E0DDF800E00E
:109D0000C5F84415C5F848250268012191606268CC
:109D10003AB1184603B0F0BD10207047112003B0CF
:109D2000F0BD036800E08AB9D3F82011D3F85821B8
:109D30000029F8D0002A14BF0F2000200CEB0603E6
:109D400007EB830300225A6103B0F0BD0F20F5E753
:109D50006C2200200220FFF771B900BF2DE9F04707
:109D60000D460646FFF77CF903281ED8012D044650
:109D70001DD00ED3022D18D11B4B00EB40041C4408
:109D8000657895B1194B1B687BB12846BDE8F04753
:109D900018471748FDF73EFD134B164A04EB4401E4
:109DA0000B44125D9D78AA42EBD0BDE8F0870E4FC0
:109DB0004FEA400808EB0003FA18FD5C53782BB912
:109DC000A04447440B4BBA781A55DAE7DFF82890DD
:109DD00007484A464FF40041FDF7C6FC0028EFD182
:109DE00089F80060ECE700BFF4220020082300207F
:109DF000B4220020102300209022002010B500780B
:109E0000FFF72EF903280BD8064B00EB400018444F
:109E1000407828B1044B1B6813B1BDE810401847C7
:109E200010BD00BFF422002008230020B24B1B68A5
:109E3000DB0700D4704770B5B04DB14E2B78347845
:109E40006BB1B04B1B7800202870002B4BD0FFF774
:109E5000BDF80120FFF7BAF80320FFF7B7F8172C79
:109E600040D8DFE814F0B500F000F000D80004019D
:109E7000C6000F01EA00500043005000430061009B
:109E800018001800180018001800660077008B00F2
:109E90009F005D005D009C48FDF7BCFCD4F11104FF
:109EA000054600F0FC80002840F0F980012C13D01A
:109EB000C82303FB04F44FF4FA704FF4004300216D
:109EC000C3FB04014FF47A72002300F0D5FF2A4649
:109ED00001468D48FDF748FC0220FFF76BF8894BDF
:109EE00001221A7070BDFFF77DF8B8E7012318460C
:109EF0002B70FFF7A3F800224FF480418348BDE8A0
:109F00007040FDF731BC012318462B70FFF796F81F
:109F1000002240F6CD417D48BDE87040FDF724BCED
:109F2000FFF776F8347070BDFFF772F80C233370CA
:109F300070BD744B1B78002B00F0BB800020FFF736
:109F400045F80120FFF742F80320FFF73FF81223FE
:109F5000337070BD6B4B1B78002B00F0AD80002080
:109F6000FFF734F80120FFF731F80320FFF72EF850
:109F70000020FFF71FF81323337070BD614B1B786F
:109F8000002B00F0A9800020FFF720F80120FFF748
:109F90001DF80320FFF71AF80120FFF70BF8142330
:109FA000337070BD574B1B78002B7FD00020FFF71C
:109FB0000DF80120FFF70AF80320FFF707F800204B
:109FC000FEF7F8FF0120FEF7F5FF1523337070BD93
:109FD0004C4B1B78002B00F087800020FEF7F6FF2B
:109FE0000120FEF7F3FF0320FEF7F0FF002333709C
:109FF00070BD0020FEF7D0FF002860D00020FEF7E3
:10A00000E5FF05233370002241F69A113F48BDE871
:10A010007040FDF7A9BB0020FEF7BEFF00285ED010
:10A020000020FEF7D3FF46F266610323337000225F
:10A030003648BDE87040FDF797BB0020FEF7BAFF39
:10A040000723337070BD0020FEF7A6FFD0B30020B9
:10A05000FEF7BCFF022C4EF2666118BF4FF40031D0
:10A06000347000222948BDE87040FDF77DBB002018
:10A07000FEF792FFD8B30020FEF7A8FF4FF400319F
:10A080000423D3E70020FEF7D9FF06233370002214
:10A0900040F6CD411D48BDE87040FDF765BB02208C
:10A0A000FEF794FF174B00221A7070BDFEF79AFF5F
:10A0B00085E7FEF797FF4AE7FEF794FF58E7FEF7BC
:10A0C00079FF9EE7FEF776FF43F2333141F69A13AC
:10A0D000022C08BF1946C3E7FEF784FF5CE7FEF7D2
:10A0E00069FF41F69A11A0E7FEF77CFF7EE7FEF7D5
:10A0F00061FF43F23331C3E7002300200423002033
:10A100000C2300209122002094220020D422002041
:10A1100038B5244B244A19608307106000F001050C
:10A1200003D4CDB92C46204638BD204B20480E2400
:10A130000F2210211C701124DA7099715C7240F2A8
:10A1400066620421FCF7DCFF0446B8B115B10120BA
:10A15000FEF798FF204638BD0120FEF793FF154A11
:10A1600015480021FDF7EEFA04460028F2D1134A03
:10A1700013480121BDE83840FDF7E4BAFDF718F8AF
:10A1800004460028E2D101460E4A0F48FDF7DAFAEC
:10A190000446002DDED00120FEF774FF002CD9D13B
:10A1A000DDE700BF0823002000230020F422002068
:10A1B0006CB802002D9E020094B80200559D02006A
:10A1C0008CB80200FD9D020090B8020010B54FF05F
:10A1D000A0430C28D3F8104524FA00F404F001043D
:10A1E00010D00D2805D04CB9084A094B14701C70CA
:10A1F00010BD0020FEF7EAFE002CF5D0BDE81040AF
:10A2000000F036B80020FEF7D5FEECE76223002010
:10A210006123002010B54FF0A043042282B0C3F8A0
:10A220001827FDF709FCB0B90321022401238DF89A
:10A2300004100A4A8DF8064001A906208DF8053061
:10A24000FDF74AFC08B1FCF7C9FF01210620FDF724
:10A2500021FD02B010BDFCF7C1FFE5E7CDA1020072
:10A2600072DF704773DF704774DF704777DF7047C6
:10A27000F0B5002087B0FEF7E1FE3648364B028885
:10A28000013292B2A3FB02139B0803EB8303D31AA0
:10A290009BB20021140A0280013BF420CDE9011198
:10A2A000CDE903118DF806408DF8052005918DF854
:10A2B0000700032B3BD8DFE803F03E420249FF23AF
:10A2C0008DF80C30254C2078FFF7CEFF2448254A26
:10A2D000436A01A99960436A99688F784B780E7830
:10A2E000CD7843EA072345EA06256B4083F474439F
:10A2F00083F053031BB20B71456A52F8041BAD681F
:10A30000C3F307236B7100F031F9E0B9164A154920
:10A310001248FFF7A5FF08B1FCF760FF2078012184
:10A32000FFF7A0FF08B1FCF759FF07B0F0BD1023FD
:10A330008DF80730C6E7FF238DF80A30C2E7FF2308
:10A340008DF80B30BEE7FCF749FFDFE7DD238DF822
:10A350000730B7E714230020CDCCCCCCDC1800208C
:10A3600064230020CC18002018230020F8B51D4FCE
:10A370001D4E1E4C1E4BBB6041F212313980002134
:10A380000D46142330463C22BB8000F056FD0423CA
:10A39000294618222046F3707762357000F04DFD93
:10A3A000144A656030462023052652F8041B2575A3
:10A3B000A5812670A36000F0D9F878B90B4A0D4941
:10A3C0000D48FFF74DFF08B1FCF708FF0A4B0822C4
:10A3D00019780120BDE8F840FFF748BFFCF7FEFE02
:10A3E000ECE700BFA02300206423002018230020F6
:10A3F000E0180020CC180020DC18002008B5054B20
:10A4000001211878FFF72EFF00B908BDBDE808400C
:10A41000FCF7E4BEDC18002000B54FF4004183B027
:10A420000020FCF7D7F8B8BBFCF75EF8FDF736F96B
:10A4300078BB00210120FFF76BFE38BB00F094FAD7
:10A4400008BB02AC002344F8043D0120214600F083
:10A4500069FBA8B9204600F017FC70B9FFF786FF2A
:10A46000FFF7D8FE0E4B0F491888000440F0030098
:10A47000FCF71CF9FFF7C2FFFEE7FCF7AFFEEDE7C4
:10A48000FCF7ACFEE6E7FCF7A9FEDAE7FCF7A6FE70
:10A49000D4E7FCF7A3FECCE7FCF7A0FEC4E700BFBF
:10A4A000E01A002098B802006DDF704779DF70472E
:10A4B0007DDF704764DF70472DE9F04F83B004887B
:10A4C0000C9EBDF83490B6F800A0002C39D0984608
:10A4D000002317468B4605461C4603E02A880134B4
:10A4E000A24224DD6A6852F82400019000220DF196
:10A4F000030101A8FFF7DEFF20BB9DF80320BA424D
:10A50000ECD13288B91803B389452BDB42440DF1F5
:10A51000030101A80123FFF7CDFF98B931889DF809
:10A5200003200A4432802A880134A242DADC43B193
:10A530003388013BA3EB0A039BB2FF2B12D808F828
:10A540000A30002003B0BDE8F08F023101328945A6
:10A5500092B207DB328008F802B03288013292B240
:10A560003280D3E70C2003B0BDE8F08F2DE9F0472F
:10A5700000231788138090F82D3086B014460546C6
:10A580000E46002B40F0F880AA78002A40F0FA80AE
:10A59000EA78A2B1D91CB94200F2F0800221F1544C
:10A5A000238801339BB201212380F15423880B447B
:10A5B0009BB22380F25423880B449BB223806A68A9
:10A5C000AAB1D91CB94200F2D980022192F9002027
:10A5D000F154238801339BB20A212380F15423884C
:10A5E00001339BB22380F2542388013323802B89CB
:10A5F000002B40F018812B8A002B40F02C812B8BF4
:10A60000002B40F040812B6A002B47D0B4F800E0CB
:10A610000EF10602BA4200F2B1801A88052A40F211
:10A62000FE806FF4486802EB080189B24FF27D307A
:10A63000814240F2F4805988052940F2F0806FF49D
:10A64000486C8C441FFA8CFC844540F2E8804FF63D
:10A65000FF70824204D0814202D08A4200F2DF8041
:10A66000052206F80E202288013292B212212280A1
:10A67000B1542288013292B222801988B1543244F6
:10A68000090A51702288023292B222805B88B35448
:10A6900032441B0A53702388023323806B6A002BD9
:10A6A0002FD09988B4F800C0881C0CF10202024433
:10A6B000BA4263D8FE2861D8033106F80C1022880C
:10A6C000013292B2FF212280B1542288013292B22B
:10A6D00022801988B1543244090A5170208802300E
:10A6E00080B220809A8862B199680393002900F0B3
:10A6F0009680304400F096FB039B9A88238813448D
:10A70000238095F82C30002B40F084802878002896
:10A7100035D02B88012B00F08280228802F1020CB8
:10A72000BC452BD8012804D16B78023313449F42D7
:10A7300024D3BB1E9B1A06A99BB221F8083D06EB49
:10A740000C00FFF7B5FED0B92A78022A00F0FB8092
:10A75000012A00F000810821FE2B0FD82288581C06
:10A76000B0542288013292B22280B1542288013240
:10A7700013442380002002E0082F23D80C2006B0C9
:10A78000BDE8F0870433BB42F8D804A8FFF78EFE7B
:10A790000028F4D12388BDF810200321F154238828
:10A7A00001339BB219212380F154238801339BB2DA
:10A7B000F1182380F254120A4A70238802339BB2A4
:10A7C0002380E5E604A8FFF76FFE0028D7D11388A1
:10A7D0000822CA54238801339BB21B222380CA5407
:10A7E0002088013080B22080062208440DF111013A
:10A7F00000F018FB23889DF8102006339BB212F05E
:10A80000FE0218BF01222380F254238801339BB239
:10A810002380B9E6D5F82880B8F1000F4CD1072085
:10A8200006B0BDE8F08705F108080222CDE900472F
:10A83000404611463346FFF73FFE00289FD1CDE941
:10A8400000474046334610220621FFF735FE002818
:10A850003FF4D1AE93E705F11008CDE9004740463B
:10A86000334602220321FFF727FE002887D1CDE9D6
:10A8700000474046334610220721FFF71DFE0028FF
:10A880003FF4BDAE7BE705F11808CDE9004740462F
:10A89000334602221421FFF70FFE00287FF46FAF2A
:10A8A000CDE900474046334610221521FFF704FE4C
:10A8B00000283FF4A8AE62E7B8F804200232FE2A6E
:10A8C0003FF65CAF23884FF000094FF0160A0132C3
:10A8D000F254238801339BB2238006F803A0238817
:10A8E00001339BB22380B8F80020F2543344120A9B
:10A8F0005A70238802339BB22380B8F80410F018F2
:10A900000A4661B1D8F808301946002B87D000F00C
:10A9100089FAB8F80420238813449BB2238009F1F4
:10A92000010995F82C205FFA89F94A4509EB490895
:10A930007FF6ECAEAA6A02EB8808B8F8042002326F
:10A94000FE2AC4D91AE7BDF810209342FFF403AFE2
:10A950001346092100E76A789342FFF4FCAE1346E0
:10A960000821F9E610DF704770B53E4D2B7884B0B2
:10A97000002B68D13C4E3D49012302A83370FEF7FD
:10A98000DFF8039B002B54D1394902A8FEF7D8F811
:10A99000039B4BB1D3E900210020904702A8FEF7AA
:10A9A000D9F8039B002BF5D1324A002312688DF8A9
:10A9B000083002A80192FCF767FF2F4901A8FFF7B2
:10A9C000D1FFB0FA80F304465B099DF808002B70B4
:10A9D000FCF780FF002C33D1284A29493470E0234A
:10A9E0000C7082F8163382F8153392F816335B092F
:10A9F000012B2CD9042B2AD0224B996861BB4FF430
:10AA0000800313601A4902A8FEF79AF8039BBBB1B2
:10AA1000D3E900210120904702A8FEF79BF8039B91
:10AA2000002BF5D10CE002A8FEF794F8039B002B55
:10AA3000AAD0D3E90021002090470028F3D1044692
:10AA4000204604B070BD0824204604B070BD42F218
:10AA50000200FCF7C3FBD5E71A6842F480021A60D3
:10AA6000D0E700BF502300204F230020B4B80200DD
:10AA7000CCB80200B0B80200FD71020000E100E0B5
:10AA80005123002054230020014B1878704700BF49
:10AA90005023002000B583B068460849FEF750F8FF
:10AAA000019B43B1D3E9002090476846FEF752F876
:10AAB000019B002BF6D103B05DF804FBC0B8020087
:10AAC00060DF704769DF704761DF7047134B1B78A9
:10AAD0001BB330B5124D91B034240DF1020103A81F
:10AAE000ADF80240FFF7F0FF88B9294601A8FEF74C
:10AAF00027F8029B002BF0D0D3E9002103A8904750
:10AB000001A8FEF727F8029B002BF5D1E5E7052801
:10AB100001D0FCF763FB11B030BD70475223002019
:10AB200018BB0200002900F09E8070B54F4B0B60EF
:10AB300084B00C4605460C22002101A800F07DF9E6
:10AB40000126062301A922688DF8045020208DF8E3
:10AB50000660ADF80830FFF7B5FF002877D10C226A
:10AB6000002101A800F069F9002322688DF8053062
:10AB700001A940208DF806308DF80730FFF7A2FFBD
:10AB8000002857D10C22002101A800F056F900231B
:10AB900022688DF8043001A90120FFF793FF0028F7
:10ABA0003BD10C22002101A800F047F9F8232268CC
:10ABB000019301A9A120FFF785FF08BB0C2200210A
:10ABC00001A800F03AF99DF8043022686FF3000301
:10ABD00001A9A0208DF80430FFF774FF08B904B074
:10ABE00070BD234B1C88FDF7C1FF240444F0010411
:10ABF000024620492046FBF7FDFE002004B070BD50
:10AC00001B4B1D88FDF7B2FF2D0445F001050246E0
:10AC100019492846FBF7EEFED0E7154B1D88FDF7D6
:10AC2000A5FF2D0445F00105024614492846FBF70F
:10AC3000E1FEB6E70E4B1D88FDF798FF2D0445F0A9
:10AC4000010502460E492846FBF7D4FE9AE7084B59
:10AC50001D88FDF78BFF2D04354302460949284620
:10AC6000FBF7C8FE7BE70E20704700BFA818002046
:10AC7000F01A002014BA0200C0B9020074B9020030
:10AC800028B90200E0B80200F8B504460668FFF7EC
:10AC900017FF2368B342054605D83DBB1B4B012275
:10ACA0001A702846F8BD1A4F1A493888000440F037
:10ACB0000200FBF7FBFC3888236817490004324682
:10ACC00040F00200FBF716FF4FF080533888D3F8AE
:10ACD0000C31226811499B02000403F1005340F03B
:10ACE00002009A1AFBF786FE002DD7D0084B2846A3
:10ACF0001C88FDF73BFF240444F001040246084988
:10AD00002046FBF777FE2846F8BD00BF52230020FF
:10AD1000F01A002068BA020098BA0200CCBA020009
:10AD2000F8BA02004BDF704710B5114C84B001A88F
:10AD3000FFF7F8FFA8B9214602A8FDF701FF039B22
:10AD4000002BF4D0D3E900210198904702A8FDF729
:10AD500001FF039B002BF5D101A8FFF7E3FF0028BB
:10AD6000E9D0052801D0FCF739FA04B010BD00BFC6
:10AD700030BB020008B5074B044613B10021AFF306
:10AD80000080054B1868836A03B19847204600F09D
:10AD900071F800BF0000000048BB020070B50D4E06
:10ADA0000D4CA41BA4100025A54209D10B4E0C4C40
:10ADB00000F0E2F9A41BA4100025A54205D170BD46
:10ADC00056F8253098470135EEE756F82530984774
:10ADD0000135F2E7C41A0020C41A0020C41A00206A
:10ADE000C81A0020044B054A1B681B6A002B08BFC9
:10ADF0001346D3F8EC007047F418002058190020CF
:10AE000082B001B901A942B14BB113780B6012783D
:10AE1000101C18BF012002B070471046FBE76FF00E
:10AE20000100F8E710B5431E0A44914200D110BD5D
:10AE300011F8014B03F8014FF7E702440346934230
:10AE400000D1704703F8011BF9E7034613F8012B03
:10AE5000002AFBD1181A0138704749B1FF2A85BF73
:10AE60008A2303600A704FF0FF3098BF01207047BB
:10AE700008467047FEE700BF53B94AB9002908BF2A
:10AE800000281CBF4FF0FF314FF0FF3000F072B9C7
:10AE9000ADF1080C6DE904CE00F006F8DDF804E031
:10AEA000DDE9022304B070472DE9F047089E04460F
:10AEB0008846002B4BD18A42154667D9B2FA82F2F6
:10AEC0004AB1C2F1200701FA02F320FA07F79540D0
:10AED00047EA030894404FEA154E230CB8FBFEF7EF
:10AEE0001FFA85FC0EFB178843EA084307FB0CF1A9
:10AEF000994209D9EB1807F1FF3080F01B81994284
:10AF000040F21881023F2B445B1AA4B2B3FBFEF05F
:10AF10000EFB103344EA034400FB0CFCA44509D9A2
:10AF20002C1900F1FF3380F00781A44540F2048121
:10AF300002382C4440EA0740A4EB0C0400271EB161
:10AF4000D4400023C6E900433946BDE8F0878B4270
:10AF500009D9002E00F0EB800027C6E90001384631
:10AF60003946BDE8F087B3FA83F7002F47D18B420B
:10AF700002D3824200F2FA80841A61EB03030120BB
:10AF80009846002EE0D0C6E90048DDE702B9FFDEB2
:10AF9000B2FA82F2002A40F08F80491B4FEA154E28
:10AFA0001FFA85F80127B1FBFEFC230C0EFB1C11D8
:10AFB00043EA014308FB0CF1994207D9EB180CF165
:10AFC000FF3002D2994200F2CD808446591AA3B2D2
:10AFD000B1FBFEF00EFB101443EA044408FB00F83A
:10AFE000A04507D92C1900F1FF3302D2A04500F289
:10AFF000B6801846A4EB080440EA0C409FE7C7F16E
:10B00000200CBB4022FA0CFE4EEA030E01FA07F4B4
:10B0100020FA0CF521FA0CF34FEA1E482543B3FB46
:10B02000F8F92C0C08FB19331FFA8EFA44EA034393
:10B0300009FB0AF49C4202FA07F200FA07F10BD965
:10B040001EEB030309F1FF3080F087809C4240F241
:10B050008480A9F1020973441B1BADB2B3FBF8F065
:10B0600008FB103345EA034400FB0AFAA24508D95D
:10B070001EEB040400F1FF336BD2A24569D90238FC
:10B08000744440EA0940A0FB0289A4EB0A044C4541
:10B09000C2464B4654D351D0002E69D0B1EB0A05BD
:10B0A00064EB030404FA0CFCFD40FC404CEA05058B
:10B0B000C6E90054002747E7C2F1200320FA03F74E
:10B0C000954001FA02F021FA03F34FEA154E384396
:10B0D000010CB3FBFEF71FFA85F80EFB173341EAAC
:10B0E000034107FB08F38B4204FA02F407D96918FD
:10B0F00007F1FF3C2FD28B422DD9023F2944CB1AB6
:10B1000081B2B3FBFEF00EFB103341EA034100FBBA
:10B1100008F38B4207D9691800F1FF3C17D28B4224
:10B1200015D902382944C91A40EA07473BE7374690
:10B13000304609E70746E7E61846FBE64145ABD24D
:10B14000B8EB020A69EB0E0201381346A4E7604629
:10B15000E9E7184695E76746D1E781467CE702387C
:10B160002C4447E7ACF1020C2B442FE7384608E7A4
:10B170003746E9E6704700BFF8B500BFF8BC08BC29
:10B180009E467047F8B500BFF8BC08BC9E467047A5
:10B19000FFFFFFFFFFFFFFFFFFFFFFFFFFFFFFFFBF
:10B1A00000000000000000000000D60107010000C0
:10B1B000D563020041640200D16302004261636B07
:10B1C000656E647320666C757368656400000000CA
:10B1D0006170700062616C6C6F632E6C6F675F6D85
:10B1E000656D706F6F6C000040B2020070B20200BB
:10B1F00020B2020078B2020080B2020088B20200DF
:10B2000090B2020098B20200A0B2020020253032B3
:10B2100078000000202020007C0000002563000052
:10B220001B5B313B33316D0025734C6F67732064BA
:10B23000726F70706564202825642925730D0A00DB
:10B240001B5B306D00000000257300003C25733E41
:10B250002025733A200000000D0A000000000000C5
:10B26000A8B20200B0B20200B8B20200C0B202003E
:10B270001B5B313B33306D001B5B313B33326D0068
:10B280001B5B313B33336D001B5B313B33346D0053
:10B290001B5B313B33356D001B5B313B33366D003F
:10B2A0001B5B313B33376D006572726F72000000BB
:10B2B0007761726E696E6700696E666F00000000EC
:10B2C000646562756700000060200020466174615B
:10B2D0006C206572726F720053797374656D2072A1
:10B2E00065736574000000000000000000000000AD
:10B2F0000338FDD8704700004750494F54450000BF
:10B30000303132333435363738394142434445469B
:10B310007077725F6D676D7400000000556E6B6E24
:10B320006F776E206572726F7220636F64650000C4
:10B330000000000058B402000100000064B40200E4
:10B340000200000084B4020003000000A8B4020060
:10B3500004000000BCB4020005000000D0B40200EC
:10B3600006000000E4B4020007000000FCB4020084
:10B370000800000014B50200090000002CB502000E
:10B380000A00000048B502000B00000060B5020092
:10B390000C00000078B502000D0000008CB5020022
:10B3A0000E000000A0B502000F000000B0B50200C2
:10B3B00010000000C4B5020011000000DCB502005E
:10B3C00012000000ECB502001300000004B60200F9
:10B3D0008000000018B60200810000003CB60200A8
:10B3E0008200000058B602008300000074B602001C
:10B3F0008400000094B6020085000000B8B6020088
:10B4000086000000E0B6020090000000F8B60200DE
:10B410009100000018B702009200000038B7020047
:10B420000082000050B702000182000070B70200E5
:10B43000028200008CB7020000840000A8B702005E
:10B4400001840000CCB7020002840000F8B70200BB
:10B450000384000020B802004E52465F5355434318
:10B46000455353004E52465F4552524F525F53561A
:10B47000435F48414E444C45525F4D495353494EFA
:10B48000470000004E52465F4552524F525F534FA5
:10B4900046544445564943455F4E4F545F454E41DF
:10B4A000424C4544000000004E52465F4552524F08
:10B4B000525F494E5445524E414C00004E52465F39
:10B4C0004552524F525F4E4F5F4D454D00000000B8
:10B4D0004E52465F4552524F525F4E4F545F464F59
:10B4E000554E44004E52465F4552524F525F4E4FAA
:10B4F000545F535550504F52544544004E52465F8E
:10B500004552524F525F494E56414C49445F50415B
:10B5100052414D004E52465F4552524F525F494E86
:10B5200056414C49445F5354415445004E52465F86
:10B530004552524F525F494E56414C49445F4C452B
:10B540004E475448000000004E52465F4552524F4D
:10B55000525F494E56414C49445F464C4147530067
:10B560004E52465F4552524F525F494E56414C49EA
:10B57000445F4441544100004E52465F4552524F91
:10B58000525F444154415F53495A45004E52465F11
:10B590004552524F525F54494D454F55540000009B
:10B5A0004E52465F4552524F525F4E554C4C000032
:10B5B0004E52465F4552524F525F464F52424944A7
:10B5C00044454E004E52465F4552524F525F494EDF
:10B5D00056414C49445F4144445200004E52465F3C
:10B5E0004552524F525F4255535900004E52465FEA
:10B5F0004552524F525F434F4E4E5F434F554E544C
:10B60000000000004E52465F4552524F525F524575
:10B61000534F5552434553004E52465F4552524F89
:10B62000525F4D4F44554C455F4E4F545F494E4914
:10B630005449414C495A4544000000004E52465F6F
:10B640004552524F525F4D555445585F494E4954EB
:10B650005F4641494C4544004E52465F4552524F69
:10B66000525F4D555445585F4C4F434B5F464149DF
:10B670004C4544004E52465F4552524F525F4D5525
:10B680005445585F554E4C4F434B5F4641494C45DE
:10B69000440000004E52465F4552524F525F4D5596
:10B6A0005445585F434F4E445F494E49545F4641AD
:10B6B000494C4544000000004E52465F4552524FEF
:10B6C000525F4D4F44554C455F414C5245414459A2
:10B6D0005F494E495449414C495A454400000000D5
:10B6E0004E52465F4552524F525F53544F5241475C
:10B6F000455F46554C4C00004E52465F4552524FF6
:10B70000525F4150495F4E4F545F494D504C454D3B
:10B71000454E5445440000004E52465F4552524F3C
:10B72000525F464541545552455F4E4F545F454E1A
:10B7300041424C45440000004E52465F4552524F34
:10B74000525F494F5F50454E44494E47000000004C
:10B750004E52465F4552524F525F4452565F5457C5
:10B76000495F4552525F4F56455252554E000000B8
:10B770004E52465F4552524F525F4452565F5457A5
:10B78000495F4552525F414E41434B004E52465F26
:10B790004552524F525F4452565F5457495F45528B
:10B7A000525F444E41434B004E52465F4552524F0A
:10B7B000525F424C455F495053505F52585F504B67
:10B7C000545F5452554E4341544544004E52465FD7
:10B7D0004552524F525F424C455F495053505F4370
:10B7E00048414E4E454C5F414C52454144595F459E
:10B7F00058495354530000004E52465F4552524F31
:10B80000525F424C455F495053505F4C494E4B5F2D
:10B81000444953434F4E4E454354454400000000B5
:10B820004E52465F4552524F525F424C455F49501F
:10B8300053505F504545525F52454A454354454435
:10B840000000000007080B0C636C6F636B000000C6
:10B85000434C4F434B00000050525300554152544B
:10B860000000000055415254450000000D00030047
:10B870005D9D02000E0003005D9D02000F000300AD
:10B880005D9D0200100003005D9D020094220020D7
:10B89000B4220020D4220020426561636F6E2065CF
:10B8A00078616D706C6520737461727465642E00CC
:10B8B00001000007F4BC0200F4BC02000800000014
:10B8C000E4BC0200F4BC020008000000DCBC020082
:10B8D000E4BC0200080000006E72665F73646800DA
:10B8E00073645F626C655F6366675F736574282964
:10B8F0002072657475726E656420257320776865A3
:10B900006E20617474656D7074696E6720746F2049
:10B9100073657420424C455F434F4E4E5F4346472C
:10B920005F4741502E00000073645F626C655F6387
:10B9300066675F73657428292072657475726E6519
:10B9400064202573207768656E20617474656D705E
:10B9500074696E6720746F2073657420424C455F74
:10B960004741505F4346475F524F4C455F434F55F9
:10B970004E542E0073645F626C655F6366675F732D
:10B98000657428292072657475726E65642025734C
:10B99000207768656E20617474656D7074696E6778
:10B9A00020746F2073657420424C455F434F4D4DAA
:10B9B0004F4E5F4346475F56535F555549442E00EF
:10B9C00073645F626C655F6366675F736574282983
:10B9D0002072657475726E656420257320776865C2
:10B9E0006E20617474656D7074696E6720746F2069
:10B9F00073657420424C455F47415454535F43463E
:10BA0000475F415454525F5441425F53495A452E57
:10BA10000000000073645F626C655F6366675F735C
:10BA2000657428292072657475726E6564202573AB
:10BA3000207768656E20617474656D7074696E67D7
:10BA400020746F2073657420424C455F4741545405
:10BA5000535F4346475F534552564943455F43480A
:10BA6000414E4745442E0000496E73756666696312
:10BA700069656E742052414D20616C6C6F63617416
:10BA8000656420666F722074686520536F66744425
:10BA900065766963652E00004368616E6765207492
:10BAA00068652052414D207374617274206C6F631D
:10BAB0006174696F6E2066726F6D20307825782012
:10BAC000746F20307825782E000000004D61786971
:10BAD0006D756D2052414D2073697A6520666F72D5
