:020000022000DC
:1060000000000120B5620200DD620200DF620200D2
:10601000E1620200E3620200E562020000000000AB
:10602000000000000000000000000000E762020025
:10603000E962020000000000EB620200ED62020073
:10604000E96E0200EF620200EF62020011880200B6
:10605000EF620200EF620200FD7D0200EF620200CB
:1060600095730200ED73020045740200EF620200B6
:10607000EF62020069730200EF620200EF62020049
:10608000EF6202004D750200EF620200EF62020053
:10609000ED750200EF620200CD6A0200EF620200BD
:1060A000EF620200EF6202009D740200F5740200CC
:1060B000EF620200EF62020000000000000000003A
:1060C000EF620200EF620200EF620200B18802009C
:1060D000EF620200EF620200EF62020000000000C7
:1060E00000000000000000000000000000000000B0
:1060F00000000000000000000000000000000000A0
:10610000000000000000000000000000000000008F
:10611000000000000000000000000000000000007F
:10612000000000000000000000000000000000006F
:10613000000000000000000000000000000000005F
:10614000000000000000000000000000000000004F
:10615000000000000000000000000000000000003F
:10616000000000000000000000000000000000002F
:10617000000000000000000000000000000000001F
:10618000000000000000000000000000000000000F
:1061900000000000000000000000000000000000FF
:1061A00000000000000000000000000000000000EF
:1061B00000000000000000000000000000000000DF
:1061C00000000000000000000000000000000000CF
:1061D00000000000000000000000000000000000BF
:1061E00000000000000000000000000000000000AF
:1061F000000000000000000000000000000000009F
:1062000010B5054C237833B9044B13B10448AFF3F0
:1062100000800123237010BD3859002000000000C9
:106220004CBF020008B5034B1BB103490348AFF351
:10623000008008BD000000003C5900204CBF020057
:10624000154B002B08BF134B9D46A3F5803A002148
:106250008B460F461348144A121A05F0A6F90F4B45
:10626000002B00D098470E4B002B00D09847002001
:10627000002104000D000D48002802D00C48AFF3A7
:10628000008005F05BF92000290005F01BF905F0FE
:1062900041F900BF000008000000012000000000DC
:1062A0000000000038590020A05F0020000000001E
:1062B000000000000649074A074B9B1A03DD043B18
:1062C000C858D050FBDC01F011FFFFF7B9FF000008
:1062D000BCBF0200B857002038590020FEE7FEE797
:1062E000FEE7FEE7FEE7FEE7FEE7FEE7FEE7FEE786
:1062F000044B195C4FF0A04201238B40C2F80C35CF
:10630000704700BFB8BE0200044B195C4FF0A042BA
:1063100001238B40C2F80835704700BFB8BE0200A9
:10632000C20710B414D54FF0A043032201218024EA
:10633000C3F81C27C3F80027C3F80027C3F80027B9
:10634000C3F80845C3F80815C3F80815C3F80815BD
:1063500083070AD54FF0A0430C22C3F81827C3F8CF
:106360000027C3F80027C3F800275DF8044B7047E7
:1063700000B585B000230390194601AA44F201003C
:10638000CDE9013300F004F805B05DF804FB00BF6F
:1063900072B6094B1B68DB0700D500BEBFF34F8FF9
:1063A0000649074BCA6802F4E0621343CB60BFF3AF
:1063B0004F8F00BFFDE700BFF0ED00E000ED00E013
:1063C0000400FA0570B4EFF3108472B60D4B9A68AE
:1063D000AAB90D490D4E01259D60D1F88050354078
:1063E0001D60C1F88060D1F884505D604FF0FF33CC
:1063F000C1F88430027004B962B670BC70470123E2
:106400000370F8E77C5F002000E100E0FC06FFBDC0
:10641000094B9A687AB170B910B4EFF3108172B673
:10642000064A1C6814605C685460986001B962B6E2
:106430005DF8044B704770477C5F002000E100E08E
:1064400001F01F024B09012100EB8300914000F095
:1064500015B800BF01F01F0201234909934000EB6A
:106460008100D94300F016B84B0901F01F0150F824
:106470002300C84000F00100704700BF50E8003F13
:1064800043EA010240E8002C9CF0000FF6D11046D0
:10649000704700BF50E8003F03EA010240E8002CCB
:1064A0009CF0000FF6D11046704700BF01600B68EA
:1064B00043604A68934204BF00234360704700BFB3
:1064C000436843B1026891680B4443605268934249
:1064D00004BF0023436070476DDF704779DF70476A
:1064E0007DDF704764DF70472DE9F04F83B004888B
:1064F0000C9EBDF83490B6F800A0002C39D0984618
:10650000002317468B4605461C4603E02A880134C3
:10651000A24224DD6A6852F82400019000220DF1A5
:10652000030101A8FFF7DEFF20BB9DF80320BA425C
:10653000ECD13288B91803B389452BDB42440DF105
:10654000030101A80123FFF7CDFF98B931889DF819
:1065500003200A4432802A880134A242DADC43B1A3
:106560003388013BA3EB0A039BB2FF2B12D808F838
:106570000A30002003B0BDE8F08F023101328945B6
:1065800092B207DB328008F802B03288013292B250
:106590003280D3E70C2003B0BDE8F08F2DE9F0473F
:1065A00000231788138090F82D3086B014460546D6
:1065B0000E46002B40F0F880AA78002A40F0FA80BE
:1065C000EA78A2B1D91CB94200F2F0800221F1545C
:1065D000238801339BB201212380F15423880B448B
:1065E0009BB22380F25423880B449BB223806A68B9
:1065F000AAB1D91CB94200F2D980022192F9002037
:10660000F154238801339BB20A212380F15423885B
:1066100001339BB22380F2542388013323802B89DA
:10662000002B40F018812B8A002B40F02C812B8B03
:10663000002B40F040812B6A002B47D0B4F800E0DB
:106640000EF10602BA4200F2B1801A88052A40F221
:10665000FE806FF4486802EB080189B24FF27D308A
:10666000814240F2F4805988052940F2F0806FF4AD
:10667000486C8C441FFA8CFC844540F2E8804FF64D
:10668000FF70824204D0814202D08A4200F2DF8051
:10669000052206F80E202288013292B212212280B1
:1066A000B1542288013292B222801988B154324406
:1066B000090A51702288023292B222805B88B35458
:1066C00032441B0A53702388023323806B6A002BE9
:1066D0002FD09988B4F800C0881C0CF10202024443
:1066E000BA4263D8FE2861D8033106F80C1022881C
:1066F000013292B2FF212280B1542288013292B23B
:1067000022801988B1543244090A5170208802301D
:1067100080B220809A8862B199680393002900F0C2
:106720009680304404F036FF039B9A8823881344F4
:10673000238095F82C30002B40F0848028780028A6
:1067400035D02B88012B00F08280228802F1020CC8
:10675000BC452BD8012804D16B78023313449F42E7
:1067600024D3BB1E9B1A06A99BB221F8083D06EB59
:106770000C00FFF7B5FED0B92A78022A00F0FB80A2
:10678000012A00F000810821FE2B0FD82288581C16
:10679000B0542288013292B22280B1542288013250
:1067A00013442380002002E0082F23D80C2006B0D9
:1067B000BDE8F0870433BB42F8D804A8FFF78EFE8B
:1067C0000028F4D12388BDF810200321F154238838
:1067D00001339BB219212380F154238801339BB2EA
:1067E000F1182380F254120A4A70238802339BB2B4
:1067F0002380E5E604A8FFF76FFE0028D7D11388B1
:106800000822CA54238801339BB21B222380CA5416
:106810002088013080B22080062208440DF1110149
:1068200004F0B8FE23889DF8102006339BB212F0C6
:10683000FE0218BF01222380F254238801339BB249
:106840002380B9E6D5F82880B8F1000F4CD1072095
:1068500006B0BDE8F08705F108080222CDE900473F
:10686000404611463346FFF73FFE00289FD1CDE951
:1068700000474046334610220621FFF735FE002828
:106880003FF4D1AE93E705F11008CDE9004740464B
:10689000334602220321FFF727FE002887D1CDE9E6
:1068A00000474046334610220721FFF71DFE00280F
:1068B0003FF4BDAE7BE705F11808CDE9004740463F
:1068C000334602221421FFF70FFE00287FF46FAF3A
:1068D000CDE900474046334610221521FFF704FE5C
:1068E00000283FF4A8AE62E7B8F804200232FE2A7E
:1068F0003FF65CAF23884FF000094FF0160A0132D3
:10690000F254238801339BB2238006F803A0238826
:1069100001339BB22380B8F80020F2543344120AAA
:106920005A70238802339BB22380B8F80410F01801
:106930000A4661B1D8F808301946002B87D004F018
:1069400029FEB8F80420238813449BB2238009F160
:10695000010995F82C205FFA89F94A4509EB4908A5
:106960007FF6ECAEAA6A02EB8808B8F8042002327F
:10697000FE2AC4D91AE7BDF810209342FFF403AFF2
:106980001346092100E76A789342FFF4FCAE1346F0
:106990000821F9E6007800F00100704710DF704729
:1069A00070B53E4D2B7884B0002B68D13C4E3D49EC
:1069B000012302A83370FFF779FD039B002B54D10C
:1069C000394902A8FFF772FD039B4BB1D3E90021BF
:1069D0000020904702A8FFF773FD039B002BF5D121
:1069E000324A002312688DF8083002A80192FFF79E
:1069F000E9FC2F4901A8FFF7D1FFB0FA80F3044664
:106A00005B099DF808002B70FFF702FD002C33D1C5
:106A1000284A29493470E0230C7082F8163382F832
:106A2000153392F816335B09012B2CD9042B2AD08D
:106A3000224B996861BB4FF4800313601A4902A886
:106A4000FFF734FD039BBBB1D3E900210120904740
:106A500002A8FFF735FD039B002BF5D10CE002A83F
:106A6000FFF72EFD039B002BAAD0D3E900210020C5
:106A700090470028F3D10446204604B070BD082496
:106A8000204604B070BD42F20200FFF771FCD5E76A
:106A90001A6842F480021A60D0E700BF55590020FE
:106AA00054590020C0BE0200D8BE0200BCBE020085
:106AB0009163020000E100E0565900207C5F002055
:106AC000014B1878704700BF5559002000B583B0BE
:106AD00068460849FFF7EAFC019B43B1D3E900206F
:106AE00090476846FFF7ECFC019B002BF6D103B002
:106AF0005DF804FBCCBE020060DF704769DF7047C1
:106B000061DF7047134B1B781BB330B5124D91B04A
:106B100034240DF1020103A8ADF80240FFF7F0FFA5
:106B200088B9294601A8FFF7C1FC029B002BF0D0D1
:106B3000D3E9002103A8904701A8FFF7C1FC029BFD
:106B4000002BF5D1E5E7052801D0FFF711FC11B0C6
:106B500030BD704757590020E4BE0200002955D0CF
:106B600070B52B4B0B6084B00C4605460C2201A877
:106B7000002104F01AFD0226062301A92268ADF8BF
:106B8000083020208DF804508DF80660FFF7B6FF1E
:106B900001A80C22002104F008FD012501A92268AA
:106BA0008DF8055040208DF806508DF80750FFF7FE
:106BB000A5FF01A80C22002104F0F7FC0A2301A97B
:106BC00022688DF804302846FFF798FF01A80C22B0
:106BD000002104F0EAFC4FF4B06301A9226801939C
:106BE000A120FFF78BFF01A80C22002104F0DDFC9F
:106BF0009DF8043022686FF3000301A9A0208DF8EE
:106C00000430FFF77BFF002004B070BD0E207047FA
:106C1000B857002008B5FFF76FFF10B9014B0122EC
:106C20001A7008BD575900204BDF704710B5114C42
:106C300084B001A8FFF7F8FFA8B9214602A8FFF722
:106C400035FC039B002BF4D0D3E900210198904739
:106C500002A8FFF735FC039B002BF5D101A8FFF735
:106C6000E3FF0028E9D0052801D0FFF781FB04B03D
:106C700010BD00BFF0BE020010B570B101280BD1ED
:106C80000D4C2369A0703BB1D3E9002301202261A0
:106C900098472369002BF7D110BD074CA368012248
:106CA0006270002BF8D0D3E900230020A26098473F
:106CB000A368002BF7D1EFE75859002070B910B541
:106CC000074CA368012262703BB1D3E90023002086
:106CD000A2609847A368002BF7D110BD704700BF92
:106CE0005859002030B5012883B01CD015D3032893
:106CF00011D100F0A9F802A800231F4C00F8013DB3
:106D0000FFF760FBE368013BE360E56865B39DF86E
:106D10000700FFF77DFB03B030BD184B0122C3F81D
:106D2000802003B030BD02A80023134C00F8013DC1
:106D3000FFF748FB237853B1E3689DF80700013360
:106D40000122E360A270FFF763FB03B030BD0C4883
:106D50006360A3602361E36000F068F8FFF7B0FEB2
:106D600030B101232370E7E700F0B2F8A570CEE759
:106D700000F06AF8F5E700BF5859002000E100E094
:106D8000796C020038B50C4C237873B90B486360FA
:106D9000A3602361E36000F049F80546FFF790FE29
:106DA00030B101232370284638BD8525284638BDDB
:106DB00000F04AF8F5E700BF58590020796C02004E
:106DC00030B5194CA37883B0054693B110B1436830
:106DD0000120984702A8002300F8013DFFF7F2FACE
:106DE000E3689DF807000133E360FFF711FB03B090
:106DF00030BD02A803F0FF0200F8012DFFF7E2FA10
:106E000065B1226942B1954208D0134601E09D4226
:106E100004D01B68002BFAD12A602561E368002B9F
:106E2000DED100F025F8DBE758590020054A137938
:106E30002BB90121106053711846117170478520DC
:106E4000704700BF6C590020084B1A68D20706D45F
:106E50000122E02183F80013C3F880211A604FF06B
:106E600080430122C3F81825704700BF00E100E00D
:106E700010B41349134B144A0020086083B009680A
:106E800001914FF080410220019CC1F80403D868B1
:106E900040F08071D960146844F0010313605168B8
:106EA00053685B1AB3F50A5FFAD30649074B1460BF
:106EB0000122C8601A6003B05DF8044B704700BF40
:106EC00004010040F0ED00E0001000E00800004088
:106ED000044B01221A604FF08042D2F81834DB03D1
:106EE000FBD470470C00004010B5154B1A6882B0F7
:106EF0007AB10021134A19601B68507900934FF052
:106F000080410123009CC1F8083310B91168537106
:106F100088470D4B1A6882B100221A601B680193E2
:106F20004FF080420221074B0198C2F808131B68FA
:106F3000012002B0BDE81040184702B010BD00BFEC
:106F4000000100406C590020040100400368826881
:106F500018685B68934234BF01330023C01AB0FA4B
:106F600080F04009704700BFF0B583B002AB002548
:106F700003F8015D044618460F46FFF723FA23681D
:106F8000A2681E685868904238BF451CAE4213D0B4
:106F90005D6859688A420CD800225A60E2686068CD
:106FA000531E072B46D8DFE803F0423E45314545E6
:106FB000451901315960F1E7207C002840D15D6816
:106FC00059688A4244D9013159602268A16813681E
:106FD0008B4234BF013300231360DFE7D7E900237E
:106FE00000EBC500C0E900232268136850688342A3
:106FF00014D8C31A91689DF80700994238BF93606E
:10700000FFF706FA0024204603B0F0BD3B6840F8C5
:1070100025302268136850688342EAD9A16801319B
:107020000144CB1AE6E73B8820F81530DCE73B78D3
:107030004355D9E7394605FB020004F0ABFAD3E724
:107040009DF80700FFF7E4F90424204603B0F0BDE3
:107050005860BAE72DE9F041144682B01AB92046CB
:1070600002B0BDE8F081054602A8002300F8013D0A
:107070000E46FFF7A7F92A681368506883420ED9B5
:10708000A96801310144CB1A9C420BD905249DF813
:107090000700FFF7BDF9204602B0BDE8F081C31A32
:1070A0009C42F3D8D2F8008057686968EA68B8450E
:1070B00084BFAF680137A7EB0807BC4202FB081189
:1070C0000DD802FB04F2304604F064FAA9682B687C
:1070D00044448C4288BF00241C600024D7E707FB8F
:1070E00002F84246304604F055FAEA686968E71B40
:1070F00006EB080002FB07F204F04CFA2B680024B0
:107100001F60C4E710B582B002AB002203F8012D66
:1071100004461846FFF756F9236818685B689842DA
:107120000AD9A46801341C44241A9DF80700FFF70B
:107130006FF9204602B010BD1C1A9DF80700FFF73A
:1071400067F9204602B010BD30DF704731DF70476D
:1071500000B585B004AB002203F8012D8DF80700BF
:107160001846FFF72FF9FFF7ABFC30B19DF80F0081
:10717000FFF74EF905B05DF804FB0DF10701084873
:10718000FFF7F2FE0648FFF7E1FE0028EED000F020
:10719000C5F89DF80F00FFF73BF905B05DF804FB5B
:1071A000A0BF020000B583B090B103280DD102A8A2
:1071B000002300F8013DFFF705F90D480378012B86
:1071C0000FD09DF80700FFF723F903B05DF804FB2B
:1071D000074B1B78012BF8D100F0A0F800F0AAF8BB
:1071E000F3E70449013000F053F800F085F8E8E7D0
:1071F000C45900205171020010B50446FFF760FC2D
:1072000018B12046FFF7A0FF18B10248FFF77AFF38
:10721000207010BDA0BF02002DE9F043DFF86C9094
:1072200083B007460E46002542F207080CE09DF8A1
:107230000700FFF7EDF831463846FFF787FF404576
:1072400004461DD0022C17D10DF107008DF8075010
:10725000FFF7B8F8FFF734FC0028E8D1324639468A
:107260004846FFF7F7FE044600F046F89DF8070091
:10727000FFF7CEF8022CE7D0204603B0BDE8F0833C
:107280000524204603B0BDE8F08300BFA0BF020084
:1072900030B4154C23781BBB0378144ADB0711600C
:1072A00016D41349134AD1F8003223F00103C1F870
:1072B000003243785B014FF40051DBB282F80D33AA
:1072C0000125C2F8801111600020257030BC704784
:1072D000074AD2F8043543F00103C2F80435E0E769
:1072E000852030BC704700BFCC590020C859002011
:1072F00000D0004000E100E0064A074B0021116089
:1073000082B01268019201990122C3F804231A6025
:1073100002B0704700D1004000D000400349044A49
:107320000123C1F808331360704700BF00D000404C
:1073300004D0004030B40849084D0948094A0123E7
:10734000C1F808334FF4005400212B60C0F880408E
:10735000117030BC704700BF00D0004004D0004026
:1073600000E100E0CC590020074B0849084A002002
:10737000186082B01B680193019BD1F8080513685F
:10738000C0B202B0184700BF00D1004000D000409A
:10739000C85900202DE9F041114C124EDFF8488009
:1073A00082B000254FF480372368A4F5004007FA27
:1073B00005F20021013580B253B1D6F804331A42E8
:1073C00006D0216023680193D8E90031019A9847DB
:1073D000042D04F10404E7D102B0BDE8F08100BF40
:1073E0004081004000800040D05900202DE9F0414C
:1073F000114C124EDFF8488082B000254FF48037E0
:10740000236804F5E04007FA05F20021013580B257
:1074100053B1D6F804331A4206D021602368019391
:10742000D8E90331019A9847042D04F10404E7D107
:1074300002B0BDE8F08100BF4091004000900040E4
:10744000D05900202DE9F041114C124EDFF8488050
:1074500082B000254FF48037236804F5C04007FA56
:1074600005F20021013580B253B1D6F804331A4237
:1074700006D0216023680193D8E90631019A984724
:10748000042D04F10404E7D102B0BDE8F08100BF8F
:1074900040A1004000A00040D05900202DE9F0415B
:1074A000114C124EDFF8488082B000254FF480372F
:1074B000236804F5C04007FA05F20021013580B2C7
:1074C00053B1D6F804331A4206D0216023680193E1
:1074D000D8E90931019A9847062D04F10404E7D14F
:1074E00002B0BDE8F08100BF40A1014000A0014012
:1074F000D05900202DE9F041114C124EDFF84880A0
:1075000082B000254FF48037236804F5A04007FAC5
:1075100005F20021013580B253B1D6F804331A4286
:1075200006D0216023680193D8E90C31019A98476D
:10753000062D04F10404E7D102B0BDE8F08100BFDC
:1075400040B1014000B00140D0590020F8B5204AB8
:10755000204B0024C2F84041C2F84441C2F84841DF
:10756000C2F84C41C2F80041C2F804411B6833B371
:107570001949D2F804550A68AD1A1A6825F07F45F2
:10758000AA4227460DD8197CDE69AD1A144419B1F8
:107590001F74D3E9052090471EB133461A68AA42EA
:1075A000F1D90E490E4A0B7812789A4208D00D494B
:1075B0000D4A41F823404FF48013C2F80031F8BD62
:1075C000531CDBB2022B08BF00230B70EFE700BF98
:1075D000001001402C5B0020285B0020255B002070
:1075E000245B00201C5B002000E100E02DE9F04F4F
:1075F0008C4A8D4913780978DFF85082994285B01A
:10760000D8F800A000F07B810133DBB2022B08BF69
:10761000002386481370864A076852F823107B18A7
:1076200023F07F4300240360534626462046A446A9
:10763000ABB11A688A4200F26581DC68C3F800C009
:10764000891A1044DA6934B13D1825F07F45C3E941
:107650000154DE611E4613460124002BE9D1002CA3
:1076600040F07C8101230093724B734FDFF8E0916F
:1076700043F00103019355464FF0000B46B3D6E9A2
:1076800001C13446F669694B6C481A68ACEB0203D9
:1076900023F07F43834248D80B442360002201211A
:1076A000C4E90122E2612174002D5DD02A689A426A
:1076B0004DD2284603E00A689A424FD20846C16973
:1076C0009B1A0029F7D12360E161C461002ED6D155
:1076D00078783978884264D00B4603EB43034C1C1E
:1076E000BA7807EBC303E1B28A421A79397004BF52
:1076F00000213970022A9C6844D0032A38D0012A1C
:10770000E8D1227C002AE5D1D3F80CC0C4F804C02B
:107710001969A1605869E06099F800009B69A3614C
:107720000028B0D062609446ADE7A2EB0C0222F0D4
:107730007F428A4202D28B1A2360AFE700230122E4
:10774000C4E90033A360E36122746DB12A68C8F80C
:107750000040D31A2B60E56125468FE7D21A0A60F4
:107760002360E161C461B1E7C8F80040254685E7C0
:10777000002DAFD000232B74ED69002DFBD1C8F88C
:107780000050A5E74DB1AC422B4603D1E4E0944252
:107790002FD01346DA69002AF9D1002323748842D6
:1077A0009AD1BBF1000F01D1554553D0002D56D1D0
:1077B000234E244A1F4C4FF480334FF400310127ED
:1077C000C2F880103C43C6F848334FF43C60C6F81A
:1077D00008337760A047154BB7604FF43C601D60DD
:1077E000A047194B1D70002389F8003005B0BDE893
:1077F000F08FA34200F09180E0692168D8610028F1
:1078000000F086802A4603680B440360AA424FF0CA
:1078100000033978787823741CBF15464FF0010BAC
:10782000BDE700BF245B0020255B0020285B002013
:107830001C5B002000BF02000C5A0020FEFF7F00EE
:107840000010014000E100E0195B00202C5B0020EB
:10785000185B0020009B002BC5D0002DA8D0434B07
:10786000434A1C68D2F80465424FD5F800A0397825
:10787000331B23F07F43DD1CB9B93F493F4B4FF425
:107880008030C2F844034FF00108C2F804034FF4FB
:107890000030C1F8800143F001030860C2F80080A5
:1078A0004FF43C60984787F80080AA452CBF04EB52
:1078B0000A0363192E4923F07F43C1F84035D1F8FC
:1078C0000425921B9B1B22F07F4223F07F4303324F
:1078D0009A4288D9294BD1F80425C1F8402543F0B4
:1078E00001034FF43C609847234B4FF40032C3F838
:1078F0000021002389F8003005B0BDE8F08F002694
:107900000096B1E674BB521A1A6001230093ABE6ED
:10791000002339787878237441E71946EA69C8F872
:10792000002092B9CDE90231114BDFF840C00120AF
:107930009860019B89F80000CCF800204FF43C606F
:107940009847DDE90231D8F80020C8690968D86194
:1079500000287FF458AF59E72946DFE7C8F8003020
:107960009A467FE6C8F800309A46CCE7285B0020AC
:1079700000100140195B002000E100E000BF0200A0
:107980002DE9F8431F4D204E204FDFF898804FF42B
:1079900080334FF400324FF001090024C6F88020F4
:1079A00047EA0907C5F848334FF43C60C5F8083387
:1079B000C5F80490B847C5F808904FF43C60C8F883
:1079C0000040B847124A134B13491C601470134B04
:1079D000134A0C700B2114701C8099704FF48012A4
:1079E000E023C6F8802186F814333260C5F80845D4
:1079F00086F81133D5F80435C8F800302046BDE8C4
:107A0000F88300BF0010014000E100E000BF020069
:107A1000195B00202C5B0020245B00200C5A002006
:107A2000255B0020285B0020074B9B784BB132B1CF
:107A300028B10368187C20B959745A61704707202F
:107A400070470820704700BF0C5A00202DE9F0470E
:107A5000264CA37882B0002B3CD000283AD00429D1
:107A60003CD94369002B35D0814602A899F81130E2
:107A70000026012B00F8016D0CBF8846B046174662
:107A80008A46FEF79FFC6378A17822789DF807006C
:107A90005D1CEDB2A94208BF3546AA4222D003EBD5
:107AA000430304EBC3030121114AC3F80890197181
:107AB000D2F804256570C3E9032AC3E90587FEF7F8
:107AC000A7FC0C4B4FF480123046C3F8002102B0E3
:107AD000BDE8F087082002B0BDE8F087072002B0BB
:107AE000BDE8F087FEF794FC0420F0E70C5A002074
:107AF0000010014000E100E0F0B51A4CA37883B01B
:107B000043B338B343692BB3064602A8002500F8F7
:107B1000015D3574FEF756FC6278A77821789DF8F0
:107B20000700531CDBB29F4208BF2B46994214D07A
:107B300002EB420204EBC2020221966011716370F3
:107B4000FEF766FC084B4FF480122846C3F800216C
:107B500003B0F0BD082003B0F0BDFEF759FC0420CF
:107B6000F9E700BF0C5A002000E100E070B51D4CA1
:107B700094F8495082B095BB4FF0FF332946042258
:107B800004F14500C4E90933C4E90B33C4E90D33FA
:107B9000C4E90F33C4E90033C4E90233C4E9043350
:107BA000C4E90633236284F8443003F0FEFC0E4B34
:107BB0000E4A0F4E1560602183F806134021C3F86A
:107BC000801119601368019301994FF0004301225D
:107BD000284684F84920C6F8043302B070BD082056
:107BE00002B070BD305B002000E100E07C6100402D
:107BF00000600040F0B44E4B1D1895F92440002C55
:107C000024DA8C78C4F34004D4B11E68013600F045
:107C10008A805D6801351CD09D68013579D0DD68AA
:107C2000013578D01D69013577D05D69013576D091
:107C30009D69013575D0DD69013504D1072509E05D
:107C40001C6A013452D00420F0BC70470820F0BCFC
:107C5000704701251F186EB243F8252087F824606D
:107C6000002C49D08A78540715D4D50748D582000E
:107C700002F1A042D2F8004724F00204C2F8004703
:107C80002C4DC40800F0070C2F5D012202FA0CF203
:107C90003A432A558A780C7812F002020AD1083E3B
:107CA0003344104693F8442042EA841483F8444055
:107CB000F0BC7047B30003F1804303F5C0430202F8
:107CC000D3F8101521F4473121F44071C3F8101591
:107CD000240404F44034D3F8101502F4F85222437B
:107CE0000A43C3F810250020F0BC7047082485F82B
:107CF00024401A62264625461D4485F83C00B1E71B
:107D00004C784FF0A04500F5E072A40045F8224001
:107D1000B6E702259EE703259CE704259AE705259B
:107D200098E7062596E700261A6085F8246099E70B
:107D3000305B0020755B002070B42E4D2E1883B090
:107D400096F92430072B1CDD2B4493F83C309B091B
:107D5000032B41D0012B14BF4FF440314FF40031BD
:107D6000800000F1A040D0F8002722F44032C0F893
:107D70000027D0F800370B43C0F8003703B070BCC1
:107D80007047DAB2072AF9D8980000F1804000F570
:107D9000C04003F14002D0F81045920092B244F086
:107DA000010402F18042C0F8104502F5C0420020F3
:107DB0000190019C10600029E0D096F9242055F82C
:107DC0002220002ADAD001220B4902FA03F3C1F87B
:107DD000043303B070BC70474FF0A043D3F81035A4
:107DE000C34013F0010F0CBF4FF400314FF440318A
:107DF000B6E700BF305B0020006000402DE9F04195
:107E000086B00023AE4A01931168012900F0B780C3
:107E10001F46AC4B1A68012A00F0C180AA4B1A68B1
:107E2000012A00F0CE80A94B1A68012A00F0DB80FD
:107E3000A74B1A68012A00F0E880A64B1A68012AAD
:107E400000F0F580A44B1A68012A00F00281A34BD0
:107E50001A68012A0CD0A24B1B68012B00F0078185
:107E600017F0FF0F15D1002F30DB06B0BDE8F08111
:107E70009C4AD2F804231206EDD500221A601A6833
:107E800004926033049A1B68012B47F0800700F0CE
:107E9000EE80954D01260024A30003F180433E426D
:107EA00003F5C0434FEA46060BD0D3F8100555F84A
:107EB0002420D3F81015C0F30420C1F3014102B10E
:107EC00090470134082CE7D1002FCEDA00224FF082
:107ED000FF33CDE90223844C012502AE94F94430EE
:107EE000D9B2013321F0C000BFD006AB4FEAD00CAD
:107EF00003EB0C0701F0070317F80C2C05FA03F34A
:107F00001A42B2D02218890992F9242054F822800A
:107F1000B8F1000F00F0CA80032900F0CA80820087
:107F200002F1A04217F814CCD2F800771CEA030F34
:107F3000C7F3014740F0A980032F96D1032940F0F1
:107F4000A9804FF40033D2F8001721F44031C2F871
:107F50000017D2F800170B43C2F80037B8F1000F32
:107F600001D00321C0474FF0A043019AD3F8103548
:107F700093423FF47AAF029A01930392AEE75949D4
:107F8000D1F8047317F001073FF443AF136013688F
:107F90000493049B4B4B1A68012A7FF43FAF514A6C
:107FA000D2F8042392077FF539AF00221A601B68CC
:107FB0000493049B444B1A68012A47F002077FF49C
:107FC00032AF484AD2F8042356077FF52CAF00227F
:107FD0001A601B680493049B3C4B1A68012A47F003
:107FE00004077FF425AF3F4AD2F8042315077FF535
:107FF0001FAF00221A601B680493049B344B1A685D
:10800000012A47F008077FF418AF364AD2F8042354
:10801000D4067FF512AF00221A601B680493049BFC
:108020002C4B1A68012A47F010077FF40BAF2D4A3A
:10803000D2F8042390067FF505AF00221A601B6872
:108040000493049B244B1A68012A47F020077FF40D
:10805000FEAE244AD2F8042351067FF5F8AE002282
:108060001A601B680493049B47F04007EFE61C4B23
:1080700000221A601B6805934FF0A043059AD3F8BD
:108080001035019347F00047EAE6022F7FF4EDAE8A
:10809000032908D0B8F1000F3FF4E7AE434606B01D
:1080A000BDE8F04118474FF440334CE703297FF413
:1080B000DCAE16F80C201A4306F80C202FE700BFA0
:1080C0000061004004610040086100400C61004014
:1080D0001061004014610040186100401C610040C4
:1080E0007C61004000600040305B002030B4904B69
:1080F0001B78062B20D08F4B1B68062B00F0858049
:108100008D4AD2F8883043F47003C2F88830BFF348
:108110004F8FBFF36F8F4FF01023D3F80022002A48
:10812000C0F28681D3F80432002BC0F28181834BE8
:10813000834A1A6030BC7047824B1B681D07DAD136
:10814000814B1B6803F0F002302A00F09E8003F0A0
:10815000E003402B00F099807B4B1B6803F0F00399
:10816000302B00F0B980784B1B6803F0F002302A06
:1081700056D003F0E003402B52D0734B1B6803F042
:10818000F003302B00F0B6806F4B1B6803F0F00259
:10819000302A66D003F0E003402B62D06A4B1B68A4
:1081A00003F0F003302B00F0B580674B1B6803F041
:1081B000F003302B79D0644B1B6803F0F003502B95
:1081C00000F0E480604B1B6803F0F002302A37D0E7
:1081D00003F0E003402B33D05B4B1B6803F0F0024D
:1081E000302A03D003F0E003402B84D14FF08043CA
:1081F000D3F80024D20744BF6FF00102C3F8002473
:108200004C4B1B68062B7FF47BAF504B1B68062B37
:108210007FF476AF4E4A136843F4806313606FE7D0
:108220004C4B434A1B6812784B49C3F34233062A2E
:108230000B6048D1434B1B6819077FF45CAF9CE788
:10824000464A3B4B12681B78454902F04F02062B09
:108250000A607FF450AF3B4B1B6819077FF44BAFAC
:10826000BAE74FF080430022C3F80C21C3F8102175
:10827000C3F838252E4B1B78062B7FF43CAF314BCF
:108280001B681B077FF437AF88E7364B284A1B680B
:1082900012783549C3F30423062A0B60EAD1294B2F
:1082A0001B681C077FF427AF56E7304C204A304943
:1082B00012783048304B0525256001250D600024DB
:1082C0003F2104601960062A7FF415AF1D4B1B681F
:1082D0001C077FF410AF6EE7154B284A1B7828491E
:1082E0001160062B7FF407AF164B1B6818077FF44D
:1082F00002AF38E723490E4BCA681B7822F0807220
:10830000062BCA607FF4F7AE0E4B1B681A077FF48A
:10831000F2AE39E7064B1C4A1B780321062B11608D
:108320007FF4E9AE074B1B681D077FF4E4AE3CE722
:10833000E00F00F03001001000ED00E0B857002021
:108340000090D003E40F00F0E80F00F034010010BB
:108350003C170040440200103C0500405802001049
:10836000E40E004024030010403501401056004048
:1083700088560040185600401456004074C007400C
:108380000DF0ADBAF0ED00E0A00500404FF08053D5
:10839000404AD3F80414C2F82015D3F80814C2F8E0
:1083A0002415D3F80C14C2F82815D3F81014C2F809
:1083B0002C15D3F81414C2F83015D3F81814C2F8D9
:1083C0003415D3F81C14C2F84015D3F82014C2F8A1
:1083D0004415D3F82414C2F84815D3F82814C2F869
:1083E0004C15D3F82C14C2F85015D3F83014C2F839
:1083F0005415D3F83414C2F86015D3F83814C2F801
:108400006415D3F83C14C2F86815D3F84014224818
:10841000C2F86C15D3F844140378C2F87015062B13
:108420007FF469AE1D4B1B6818077FF464AEC9E684
:108430001B4B0122C3F80425D3F80024002AFBD0EB
:108440004FF0102315221649C3F80022D1F800344A
:10845000002BFBD04FF010221521114BC2F8041253
:10846000D3F80024002AFBD000220D49C3F80425CC
:10847000D1F80034002BFBD0BFF34F8F09490A4BD2
:10848000CA6802F4E0621343CB60BFF34F8F00BFB2
:10849000FDE700BF00C00040E00F00F0E40F00F077
:1084A00000E0014000ED00E00400FA052DE9F04194
:1084B0000779714D2C2606FB07F605EB060C9CF898
:1084C0001C40002C40F0BF800468AA51CCF8043056
:1084D0000B7B91F800C0012B4FF0A0464FF0010339
:1084E00003FA0CF394BFC6F80C35C6F808350B78C0
:1084F0004FF0A04C03F5E07301264CF823604B7855
:10850000FF2B00F0978003F5E07E9E404FF00308BC
:10851000CCF80C654CF82E808E78FF2E00F0908001
:1085200006F5E07E4FF0A04C4FF004084CF82E808A
:10853000B6468E7890F804C04FF02C0808FB0C5C0F
:108540008CF82060CE78FF2E25D091F804804FF073
:10855000010C0CFA06F64FF0A04CB8F1000F75D0E4
:10856000CCF80C65CE784FF0A04C06F5E0764FF0D5
:1085700003084CF8268090F804C0CE784FF02C0801
:1085800008FB0C5C8CF81F60067991F804C008FBAE
:10859000065686F81EC00E78C4F80865C4F80C3577
:1085A000C4F810E58B68C4F824354B7B0E7B003390
:1085B00018BF0123022E5BD0032E56D0012E01D10D
:1085C00043F00203C4F854358B79C4F8C035002A4F
:1085D0003FD040220723C4F80423C4F800350268C2
:1085E0004B79110B4AB2002A37DB02F1604202F5E7
:1085F00061425B01DBB282F800330268120B42F386
:10860000C40323F0604323F0030303F1604303F545
:10861000614302F01F02012101FA02F2C3F8802136
:108620001A602C2303FB0755002001232B77687762
:10863000BDE8F0818E78FF2E4FF0FF337FF470AFEE
:108640004FF0FF3E76E70820BDE8F081CCF80865E2
:1086500088E70723C4F80035E3E7084A01F00F0173
:108660005B010A44DBB21376C7E743F00603A9E7D0
:1086700043F00403A6E700BF7C5B0020FCEC00E0B5
:108680002DE9F0430779614E2C2303FB07F3804665
:10869000F0180C46417F83B0002940F08F80F358DA
:1086A000154623B112F0140F04BF012343774FF096
:1086B0002C0C0CFB076C94E80F009CF81F900CF13D
:1086C0000C0EB9F1FF0F8EE80F000AD09CF81E20A7
:1086D000012303FA09F3002A74D04FF0A042C2F834
:1086E0000835236823B103F06043B3F1005F5CD128
:1086F000A36823B103F06043B3F1005F55D12C228E
:1087000002FB07620021D8F80030C2E90911D4E960
:108710000002C3F84405C3F84825D4E90202C3F8AF
:108720003405C3F83825C3F81811D3F8182101927D
:10873000019A15F0010218BF0122C3F8502515F067
:10874000020218BF0122C3F840252A0756D500218E
:108750002C22C3F84C1102FB076260685062E0688B
:108760009062D3F84C01226800900098C3F8442529
:10877000C3F84815A268C3F834254FF40022C3F8A3
:108780003815C3F804232C2202FB07F2B2580AB3AF
:1087900015F004004FF040021ABF0020C3F8082370
:1087A000C3F8042303B0BDE8F0832C2303FB076662
:1087B00000237377102003B0BDE8F083112003B0CD
:1087C000BDE8F0834FF0A042C2F80C352368002BBF
:1087D00089D18DE7D3F81821002AFBD02C2303FB85
:1087E0000766F27FFF2A0FD0B07F012393404FF03E
:1087F000A04230B10020C2F80C35DCE701221A613A
:10880000C1E7C2F80835D6E70020D4E77C5B00203A
:10881000244BD3F80423120384B002D5D3F84C219F
:1088200002BB204AD2F81831002B35D000211E4B54
:10883000C2F81811D2F81811DA7F0191FF2A0199B4
:1088400008D0987F012101FA02F24FF0A04128B32D
:10885000C1F80C2500225A771A72D3E90021134877
:1088600004B010470021C3F84C11D3F84C210292F8
:10887000029AC3F818110C4AD3F818110391D2E9DF
:108880000910039AC3F8481501224FF40021C3F8D8
:108890003805C3F808131A6104B07047C1F80825F9
:1088A000D8E700BF003000407C5B0020845B0020E4
:1088B000264BD3F80423120384B002D5D3F84C21FD
:1088C00022BB224AD2F81831002B39D00021204B8C
:1088D000C2F81811D2F8181193F84B200191FF2A11
:1088E000019909D093F84A00012101FA02F24FF0F0
:1088F000A04138B3C1F80C25002283F8492083F841
:108900003420D3E90B21134804B010470021C3F8E9
:108910004C11D3F84C210292029AC3F818110C4A58
:10892000D3F818110391D2E91410039AC3F848152B
:1089300001224FF40021C3F83805C3F808131A6167
:1089400004B07047C1F80825D6E700BF00300240E8
:108950007C5B0020B05B002030B587B005784468B0
:108960008DF8045002948568084A094B8DF80C5024
:10897000D0E9034053F821308DF81400049452F8E4
:10898000211001A8984707B030BD00BFD45B00207C
:10899000E05B00202DE9F04306461F4C16F8047BEF
:1089A0001E4844F8273015460C460FC8DFF870E023
:1089B000DFF870C04EF8275085B0002D6D4685E871
:1089C0000F00237894F8019094F8028094F803E063
:1089D0008DF8003029463B46257B67798DF801905C
:1089E00018BF6246304694F804C0A668647B8DF8D0
:1089F000028008BF00228DF803E08DF805C08DF8D5
:108A0000067002968DF80C508DF80D40FFF74EFD64
:108A100005B0BDE8F08300BFD45B002008BF0200B2
:108A2000E05B002059890200B0DF704766DF7047C5
:108A300038B10378DE2B02D1418000207047082036
:108A400070470E20704700BF19B110B10B78DE2BB4
:108A500000D0704730B505464B888088984285B075
:108A60000C4606D02A88012A0DD0512A20D005B004
:108A700030BD0B7A002B35D12B88112B48D0512BD0
:108A80004DD0012BF3D12B7A012BF0D16288824299
:108A9000EDD123720021FFF7C9FF00284ED0112825
:108AA00008BF2372E3D063689847E0E76388A8882B
:108AB0008342DCD1AA79022AD9D1A97B01F0FD0039
:108AC00004282ED00529D2D100206946C1E9020030
:108AD000009048608DF800201846FFF7A5FF002899
:108AE000E1D1C4E70021FFF7A1FF0346A8B1112897
:108AF00012D0636898472B88112B05D0512BD5D005
:108B0000012BB4D1A888BEE7AA8863889A42AED167
:108B10004FF6FF736380AAE701232372EBE7034656
:108B2000C6E7694600204FF4C07548600090C1E96F
:108B300002008DF80020ADF80450CDE7207296E7D2
:108B400075DF704776DF70477ADF70477BDF7047ED
:108B500030B51D4B1A8884B2A24283B001D003B055
:108B600030BD1A4D187A297B88420FD32A7C002108
:108B70001972E2B96B69002BF1D00022ADF8064002
:108B80008DF8042001A8984703B030BD104603F1CA
:108B90000A01FFF7D5FF28B11128E0D0AB69002BFF
:108BA000F1D1DCE71A7A01321A7203B030BD3B21F1
:108BB0002046FFF7C7FF30F00803DBD0AB69002B7E
:108BC000D8D09847D6E700BF085C0020EC5B0020B7
:108BD000F0B50288112A83B0034649D036D9122A4B
:108BE00008D0502A04D16C4DC188EA89914251D0F5
:108BF00003B0F0BD694C828821889142F8D1E189A7
:108C00006589B1F5FA7F24BF6FF4F9700E185889A1
:108C100038BF002685424FD8A58985424CD39B8911
:108C2000B34249D301F2F311994245D35A4B5B69E0
:108C30004FF480712181002BDAD00121ADF806209C
:108C40008DF8041001A8984703B0F0BD102ACFD1C9
:108C5000C27B012ACCD1514C21884FF6FF72914240
:108C60003CD04D4B9B69002BC2D004209847BFE7F6
:108C70004A4C828823889A42BAD16068FEF73CFF4A
:108C800018B1454B9B6903B198474FF6FF7323809A
:108C900003B0F0BD028A022AAAD1404C86882788F8
:108CA000B742A5D11230FDF775FE002856D1606895
:108CB000FEF722FF70B99BE7374D267A6068D5E949
:108CC0000131002E08BF194600236372FEF7BEFE75
:108CD00000288DD0AB69002BB5D189E7304D828853
:108CE000228003CDC4F80E10E689C4F80A00B6F558
:108CF000FA7F28BF6FF4F9754FF00001588AB4F875
:108D00000AC0217228BF7119234D8445EF8919D8F3
:108D1000B4F80CC0844515D39B8A8B4212D306F25B
:108D2000F3169E420ED301216172002F7FF460AFD3
:108D30006B69002B3FF45CAF8DF80410ADF8062092
:108D400001A880E700236372002F7FF451AF6068B1
:108D50006968FEF77BFE0028BCD149E7637A63B9F6
:108D6000D5E90131267A60683A46002E08BF1946D7
:108D7000FEF76CFE0028ADD13AE76B690022227243
:108D8000002B3FF435AF0122ADF806608DF80420CA
:108D900001A898472CE700BFEC5B0020085C00208E
:108DA0001C5C002000282FD0F8B5054606460FCDE4
:108DB000164F3C460FC4844695E80700144B3B60B1
:108DC00084E80700BCF1000F18D06046FFF7BCFE36
:108DD00098B932681068516803C30E4B0E490F4AA8
:108DE00018464FF6FF7440F8041F1C800021FEF760
:108DF0001BFE002814BF03200020F8BD1846FFF713
:108E0000A5FE0028E9D0F8BD0E207047EC5B0020DD
:108E10001C5C0020085C0020245C0020518B0200B8
:108E20002DE9F0470388B0F80490112B98B059D081
:108E30001A2B804647D0102B02D018B0BDE8F0871F
:108E4000394A936818A8DB4340F8603D5168FDF744
:108E500021FB009B0193019B63B300273C46214605
:108E600001A8FDF701FB28B118AB03EB470301375D
:108E700023F8284C0134142CF1D10D970DAE0FCEF0
:108E800002AC0FC40FCE0FC496E8070084E80700B9
:108E900087B10DF10A0A254E0AEB47073AF8025F3F
:108EA000234C204629460434FDF7D4FAA642F8D1D3
:108EB000BA45F3D1B9F1130F1BD90420FDF758FAC5
:108EC00018B0BDE8F087047A1A482409012C4946F5
:108ED00020D9FDF7B5FA022C494617481ED0FDF7F8
:108EE000AFFAAAE749461548FDF7B4FA18B0BDE84D
:108EF000F08749461148FDF7A3FA49460C48FDF7AB
:108F00009FFA98F80F30012B97D049460C48FDF78F
:108F100097FA92E7FDF79EFA07484946FDF79AFA55
:108F200018B0BDE8F08700BF445C0020BC5C0020A6
:108F3000485C0020545C0020585C00204C5C002001
:108F4000505C002090DF7047A5DF7047B5DF7047A9
:108F5000B8B130B403464FF0171200201B250A4C5D
:108F600099611A60C3F80620172141F61B321D7162
:108F70009872D8729874D874DC6019829A8230BC66
:108F800070470E20704700BF1B1B17002DE9F041F2
:108F90008588012D84B002D904B0BDE8F081028833
:108FA000232A0C4627D015D93A2A76D0552A3CD008
:108FB000242A5CD0EE00A3199B7A002BECD0344419
:108FC0002846E188FFF7C0FF0028E5D10122A07202
:108FD000E272E1E7102A7ED0112AEBD101EBC50144
:108FE00000221B234FF01710C1F806008A72CA72C4
:108FF0000B734B73D0E7EE0001EB0608037A98F889
:109000000C20934228BF134600276A4602A928462F
:10901000ADF80830ADF80A30ADF80470039700974A
:10902000FFF790FF98F80A30C7E7EE00C3888F1962
:10903000172BF98838BF17238B4228BF0B46002215
:109040003B81BA722846FFF781FFFB7A1BBBA369FD
:109050000BB340F677213A89ADF80810ADF80A5005
:10906000ADF80C2002A920469847BB7AA5E7EE0090
:109070008F19027A7A738B696BB100204DF67A21D1
:10908000ADF80C00ADF80810ADF80A508DF80C20C2
:1090900002A920469847BB7A8FE701EBC5064389B2
:1090A000F288934228BF1346172B38BF172333810A
:1090B0008A6962B1F17A51B140F67721ADF80810B2
:1090C000ADF80A50ADF80C30204602A990470023B5
:1090D000F372B37260E7EE008B190A791A73C27BE0
:1090E000012A1AD0022A1BD0D9881A898A421AD397
:1090F0001A7B597B91420ED291B20027ADF808102D
:10910000ADF80A106A4602A92846ADF80470039724
:109110000097FFF717FF9B7A4FE70988D980E4E7AC
:109120004988D980E1E72846FFF70EFF10B90122F0
:10913000DA72DDE7112804BF01229A72D8E700BF76
:1091400070B584B000210B460A460A4E8DF80C100B
:1091500007258DF80D104FF080540748009669469A
:10916000ADF804500294FFF715FC08B1FDF700F9C3
:1091700004B070BD0C13FFFFC05700202DE9F04F65
:109180008BB00AAB002503F8165D044605AF184600
:10919000FDF718F929460422384602F006FA4FF086
:1091A00004092A4606A90DF1130A3748374EDFF89D
:1091B000D8B006970995CDE9079A04F19608FFF70C
:1091C0005FFA039504220021384602F0EEF9337865
:1091D00020780093FF25002319462A468DF8145065
:1091E00000F0FAFA94F801C031788DF815000023E8
:1091F0002A4660460091194600F0EEFA94F802C043
:1092000031788DF8160000232A46604600911946F1
:1092100000F0E2FA03348DF81700039BCDF820A08C
:10922000002206A95846CDE906790993FFF728FAE6
:109230004445C7D129460422384602F0B6F9039CBA
:109240001148CDF820A006A90022CDE9067909949D
:10925000FFF716FA06A900220B48CDE90679CDE9F9
:1092600008A4FFF70DFA06A900220748CDE9067900
:10927000CDE908A4FFF704FA9DF81200FDF7C8F83D
:109280000BB0BDE8F08F00BFC4570020BC570020D2
:10929000014B1870704700BFBC570020014B187875
:1092A000704700BFBC5700200D4B1A78312A0ED9E9
:1092B0004F2A08D96D2A0ED98B2A94BF8C221422EA
:1092C0001A7000F05FBA50221A7000F05BBA3222B6
:1092D0001A7000F057BA6E221A7000F053BA00BF2D
:1092E000BC57002010B5164C2378012B11D0022B4F
:1092F00008D0052B16D0042B1DD00A2B17D0002325
:10930000237010BD0F4B1B78002BF8D101F0CCFE61
:10931000F5E70C4B1B78002BF1D101F0F3FE002395
:10932000237010BD01F00CFF01F0D6FFE7E7FF202E
:10933000FFF7AEFFE3E701F003FF02F027F8DEE7F7
:10934000FC5C0020895F002010B5084C23780133B5
:10935000DBB2042B237000D810BD054B01221A701C
:10936000FFF7A2FF0023237010BD00BF885F00201D
:10937000895F002010B54FF0A043D3F8103523FAD1
:1093800000F010F0010412D01348FEF7B5FB134AA9
:1093900013480021FEF748FB002243F23331114805
:1093A000FEF754FB104A13780133137010BD0D48BB
:1093B000FEF7A2FB0D490E4B0C700E4A0E481C70B6
:1093C0000121FEF731FB224641F233310248BDE86C
:1093D0001040FEF73BBB00BFDC5C0020E5920200C2
:1093E00018BF0200BC5C0020FC5C0020895F0020EC
:1093F000885F0020499302001CBF020010B54FF0A7
:10940000A043042282B0C3F81827FEF7AFFBA8B927
:10941000032302240B4A8DF8043001A906208DF89D
:1094200005308DF80640FEF7E5FB08B1FCF7A0FF1C
:1094300001210620FEF780FC02B010BDFCF798FF6A
:10944000E6E700BF75930200F0B53B483B4A0021B8
:10945000A7B0C2E90011C2E90211C2E90411C2E9D0
:109460000611C2E90811C2E90A11C2E90C11C2E9E8
:109470000E11C2E91011C2E91211C2E91411C2E9B8
:109480001611C2E91811C2E91A11C2E91C110346EA
:10949000C2E91E1100F1960EC2E92011C2E92211A3
:1094A000C2F89010A2F89410C0E90011C0E90211AE
:1094B000C0E90411C0E90611C0E90811C0E90A11A8
:1094C000C0E90C11C0E90E11C0E91011C0E9121178
:1094D000C0E91411C0E91611C0E91811C0E91A1148
:1094E000C0E91C11C0E91E11C0E92011C0E9221118
:1094F000C0F89010A0F8941069461D7892F800C04A
:109500005C78577898789678654538BF6546BC4250
:1095100038BF3C460333B04238BF304673450D7008
:109520004C70887002F1030201F10301E5D1684635
:10953000FFF724FE27B0F0BD985D0020005D0020FD
:1095400010B4094A00EB4003D11800208C78497808
:10955000D35C64F3070061F30F2083B063F317401B
:1095600003B05DF8044B7047005D0020F0B5962213
:10957000A7B00021144802F018F8FFF7E1FD134BE3
:10958000114903F1960E6A461D7891F800C05C7887
:109590004F7898788E78654538BF6546BC4238BFAD
:1095A0003C460333B04238BF30469E451570547078
:1095B000907001F1030102F10302E5D16846FFF763
:1095C000DDFD27B0F0BD00BF005D0020985D0020EC
:1095D00030B4044D00EB40002C182B546270A17085
:1095E00030BC7047005D0020192812D8F0B4094C37
:1095F00000EB400025182354C0F19307C0F19406F6
:10960000C0F195006A70A970E355A2552154F0BCD1
:1096100070477047005D002070B400242546264640
:1096200060F3070562F3070461F3070661F30F2493
:1096300062F30F2560F30F261B4B60F3174461F3B1
:10964000174562F3174662F31F6460F31F6561F309
:109650001F661C60DC609C615C621C63DC639C6454
:109660005C651C66DC669C679D605D611D62DD62F9
:109670009D635D641D65DD659D665D675E601E6161
:10968000DE619E625E631E64DE649E655E661E67CA
:10969000C3E91F65C3E92146C3E9235483F8941045
:1096A00083F8950070BC7047005D002070B4002402
:1096B0002546264660F3070562F3070461F30706B3
:1096C00061F30F2462F30F2560F30F261B4B60F349
:1096D000174461F3174562F3174662F31F6460F3A2
:1096E0001F6561F31F661C60DC609C615C621C632B
:1096F000DC639C645C651C66DC669C679D605D61E8
:109700001D62DD629D635D641D65DD659D665D674F
:109710005E601E61DE619E625E631E64DE649E6545
:109720005E661E67C3E91F65C3E92146C3E923548A
:1097300083F8941083F8950070BC7047985D002002
:10974000F0B5312BBDF8147014D8DFF834C0002404
:1097500003EB430601340CEB0605A4B2A7420CF858
:10976000062007EB030E6970A87004D80EF1010300
:10977000312BECD9F0BD0133322BE9D1F0BD00BF64
:10978000005D0020F0B5124B1249A7B003F1960E10
:109790006A461D7891F800C05C784F7898788E788A
:1097A000654538BF6546BC4238BF3C460333B042CE
:1097B00038BF30469E4515705470907001F103011A
:1097C00002F10302E5D16846FFF7D8FC27B0F0BDEF
:1097D000985D0020005D002010B4019C401AE41A3E
:1097E00004FB00F4521AB4FBF2F05DF8044B184489
:1097F000704700BF10B52DED028B84B004AC08EEAD
:10980000100A002304F8023DBBEECC8A2046FDF787
:10981000F3FC9DF80E30002BF8D001210DF10F0064
:10982000FDF7FAFC08B1FCF7A3FD9DF80F3007EE39
:10983000903AF8EE677A67EE887AFCEEE77ACDED3B
:10984000017A9DF8040004B0BDEC028B10BD00BF8E
:1098500008B5FDF797FA50B90020FDF7B1FAFEF709
:109860008FF800B908BDBDE80840FCF781BDFCF7E2
:109870007FFDF1E772DF704773DF704776DF704777
:109880007ADF70477CDF70477FDF70478ADF704781
:109890008BDF70478FDF7047B1DF704710B5002353
:1098A0000749084A084C0B80184623701370FCF7D0
:1098B0002BFD0648FEF720F9BDE8104001F0C8BBBB
:1098C000305E0020325E00202E5E0020345E0020DC
:1098D000FCF74EBD08B5037803B108BD054B3B212D
:1098E0001888FFF7CBFF0028F7D0BDE80840FCF749
:1098F0003FBD00BFE257002010B50D4C0D490E4A88
:109900004FF6FF7320460B801370FEF7F5F80B4AF5
:109910000B480021FEF788F80A4B20461A684FF4DE
:109920001601FEF793F8BDE8104001F091BB00BFAF
:10993000345E0020305E0020325E00209D980200E0
:1099400020BF0200F85E00202DE9F04F85B00388AB
:10995000103B00AF0646462B2DD8DFE803F04F58EA
:109960002C642C2C2C2C2C2C2C2C2C6E2C2C2C3AAF
:109970002C2C2C2C2C2C2C2C2C2C2C2C2C2C2C2C27
:109980002C2C2C2C2C2C2C2C2C302C2C2C2C2C2C13
:109990002C2C2C2C2C2C2C2C2C2C2C2C2C2C2C2C07
:1099A000452C2C2C3000D546A0490020FFF76EFF37
:1099B00008B1FCF7DDFC1437BD46BDE8F08F8088A8
:1099C0001321FFF75BFF0028F3D11437BD46BDE834
:1099D000F08F07F11001002321F8043D8088FFF784
:1099E00059FF0028E7D0E4E7914A00231088194680
:1099F0001A46FFF751FF0028DDD0DAE78C4B81884B
:109A00008C481980FFF714F80028D4D0D1E78A4A8F
:109A1000874B107801214FF6FF721A80FFF72CFF59
:109A20000028C8D0C5E7824A0023108885211A463D
:109A3000FFF72AFF0028BED0BBE7838CD0F8208038
:109A4000002BB1D098F8004098F801B0A31D03F4A2
:109A5000FC73A11EEA461829ADEB030DE94604F19B
:109A6000FF32A0D8002517E00134B38C25449D4275
:109A7000D54699D218F80540A21D02F4FC7208EBF5
:109A80000503A11EEA461829ADEB020DE94604F1D3
:109A9000FF3293F801B086D8A91C4144484601F032
:109AA00079FDBBF1FF0FDFD199F8012099F8003063
:109AB00043EA022341F212329342D5D199F80420AD
:109AC00099F803B099F8020099F8053099F807C0A1
:109AD00099F806104BEA022B8BF4744E8EF0530E5D
:109AE00043EA002282EA0E0241EA0C219142BBD1F4
:109AF000DD2B07D0514A1278904208D084BF4F4BDB
:109B00001870B1E74E4A1278002AADD0F2E74D48FE
:109B10007B60FDF7F1FF4C4A4C480021FDF784FFC4
:109B20004B4A484812684FF47021FDF78FFF494AAD
:109B30001188594598D24249A2F800B008787B684C
:109B400040B93960FCF7D4FB01F00CFB39687B6845
:109B500001220A707B6001F0F3FA7B68102B13D0AE
:109B6000F42B16D0F52B23D099F80920FF2A38D0F2
:109B7000202B40D0FD2B2AD0DD2B39D0FF2B7FF4BA
:109B800073AFFFF7B9FE6FE799F8080001F002FB29
:109B90006AE701F0E7FAFFF757FC99F80A2099F80D
:109BA000091099F80800FFF737FDFFF7EBFD5BE7B9
:109BB00001F0D8FAFFF748FC99F80B3099F80A2021
:109BC00099F8091099F8080001F02EFB4CE799F874
:109BD0000830052B3FF648AFDFE803F024201C18BF
:109BE000141001F0BFFAFFF72FFCFFF7CBFD3BE7A6
:109BF000FFF754FE38E700F07DF935E78C20FFF7DA
:109C00004DFB31E76E20FFF749FB2DE75020FFF7B2
:109C100045FB29E73220FFF741FB25E71420FFF73A
:109C20003DFB21E70020FFF739FB1DE7E45700204B
:109C3000E2570020BC5E0020E0570020325E00208A
:109C40002E5E0020345E00209D98020020BF02009E
:109C5000F85E0020305E00202DE9F041A4B0FCF752
:109C60009FFE002840F0D18024AC002344F83C3D06
:109C700001202146FCF772FF002840F0C3802046F7
:109C8000FCF7C8FF08B1FCF773FB24AD112305F8FE
:109C9000783D5F4801F0FCFC5D4982B22846FFF741
:109CA000F1FD002840F0AB8008220021204601F0A1
:109CB0007CFC584B159320464FF0C8731693FFF762
:109CC000DFFD08B1FCF754FBFFF7E2FD524B5349AF
:109CD0001A78A02058805020002602F0FB029880BD
:109CE0000120587066F3C40218461A70DE80FFF730
:109CF000CDFD08B1FCF73CFB00214948FFF728F9EE
:109D000008B1FCF735FB4FF08053464FD3F8608025
:109D10000A2041F212333B8001F034FC00260A2273
:109D20003146BA80067246720822B86001F03DFCE6
:109D3000BB68C8F307225A70314683F800803C2282
:109D4000284601F032FC0227314606233C22012638
:109D500020468DF818708DF81A608DF81B3001F0D0
:109D600024FC314A284652F8041BFCF717FC002853
:109D700042D118220021684601F017FC042000237C
:109D80004FF4807640258DF800006A462649274822
:109D9000ADF80C300193ADF814600295FFF76AFD41
:109DA00008B1FCF7E5FA1C220021204601F0FDFB7A
:109DB00000231F4A1593ADF862308DF864301D4BB7
:109DC00020464FF420254FF420340321CDE91654CA
:109DD0008DF86010CDE91A23FEF7E4FF08B1FCF717
:109DE000C7FA124B01211878FFF746FD08B1FCF7BE
:109DF000BFFA24B0BDE8F081FCF7BAFAB9E7FCF786
:109E0000B7FA51E7FCF7B4FA39E7FCF7B1FA2BE7F8
:109E100024BF02005000A000E85E0020E4570020AC
:109E2000945E0020B05E0020D0570020E057002054
:109E3000D5980200D19802001A4A1B49F8B50023B0
:109E400013701A4D1A4A2B700B701370194D1A4962
:109E50001A4A2B700B701370194D1A491A4A1B4C71
:109E60002B700B7013701A491A4A1B4F1B4E1C4D56
:109E70003B80204633802B700B701370FDF73CFE47
:109E80001848FDF739FE184A18480121FDF7CCFDA6
:109E9000174B20461A6840F26661BDE8F840FDF7AE
:109EA000D5BD00BFFC5E00208E5F0020975F0020C4
:109EB000985F00208C5F0020965F0020915F00205B
:109EC000905F00208B5F00208A5F0020485F0020A9
:109ED0008D5F00208F5F0020945F0020925F002044
:109EE0009A5F0020085F002091A0020038BF0200A6
:109EF000685F002070B50C4C23780133DBB2032B74
:109F000008BF00232370094B00251D70FFF79CFA42
:109F10000748FDF7F1FD2278064B284653F822301A
:109F2000BDE87040184700BF995F00206C5F0020BB
:109F3000085F0020EC5700202DE9F041234C2088D9
:109F400001F012FD0022224B01F078FD214B064664
:109F50000F46187801F008FD32463B4601F06EFDD1
:109F600001F07EFF1C4B5FFA80F8187801F0FCFCD2
:109F700032463B4601F062FD01F072FF174BC5B25D
:109F8000187801F0F1FC3B46324601F057FD01F034
:109F900067FF42462946C0B2FFF73EFBFFF7F2FBE0
:109FA00023880F4AB3F5807F09D033B1127842B9C4
:109FB00001339BB22380BDE8F0811370F8E70121E3
:109FC0001170013B9BB22380BDE8F081925F0020BD
:109FD0000000703F965F0020915F0020905F00209E
:109FE0009A5F002010B5294C238801339BB2302B97
:109FF00082B0238003F001020ED922BB1146104625
:10A00000FFF70AFB23883F2B01D90023238002B0EE
:10A01000BDE81040FFF7B6BBF2B103F00303012B1C
:10A0200023D0032BF3D1052400231A4619460094AC
:10A03000FF20FFF785FB0021009423460846FF22FE
:10A04000FFF77EFBE3E7C82211461046FFF7E4FA6C
:10A0500023883F2BDBD9D8E711461046FFF7DCFAFF
:10A0600002B0BDE81040FFF78DBB05240023194660
:10A0700018460094FF22FFF763FB0022009423465A
:10A080001146FF20FFF75CFBC1E700BF925F002095
:10A09000F8B5144EFFF7D8F93488582C1CD8DCB129
:10A0A000114F002503E0013C05F103050CD0B02D54
:10A0B000F9D87A19795D937852782046FFF794FAA7
:10A0C000013C05F10305F2D1338801339BB23380A3
:10A0D000BDE8F840FFF756BB01233380BDE8F840E8
:10A0E000FFF750BB925F00200C5800202DE9F84389
:10A0F0005A4B1E78002E60D00025594F594C5A4EAD
:10A10000A84627E0A0F155039BB2C3EB8331A0F131
:10A11000AA0292B203EB8101C2EB823CFF3103EB56
:10A120004303A92802EB8C0C89B29BB23DD902EB08
:10A1300042020CF1FF0392B29BB26280A380D2B2C2
:10A14000DBB2A4F80080002128460135FFF740FA71
:10A15000322D1DD02B023888A6FB032300EB1310F1
:10A16000C0B2C0EB803200EB8202FF32542800EB19
:10A17000400192B2C6D8218062802846C9B2D2B2CC
:10A1800000230135A4F80480FFF722FA322DE1D133
:10A190003B88B3F5807F04BF00233B80FFF7F2FAD2
:10A1A0003B8801333B80BDE8F8832180A380A4F87D
:10A1B0000280C9B2DBB20022C6E7294F294CDFF882
:10A1C000A880B146312529E0A0F155039BB2C3EB2D
:10A1D0008331A0F1AA0292B203EB8101C2EB823C6F
:10A1E000FF3103EB4303A92802EB8C0C89B29BB22D
:10A1F0002CD902EB42020CF1FF0392B29BB26280B7
:10A20000A380D2B2DBB2A4F8009000212846013D21
:10A21000FFF7DEF96B1C06F58076B9D03888A8FB0D
:10A22000062300EB1310C0B2C0EB803200EB8202B9
:10A23000FF32542800EB400192B2C5D821806280E1
:10A24000A4F80490C9B2D2B20023DFE72180A38032
:10A25000A4F80290C9B2DBB20022D7E79A5F0020CF
:10A26000925F0020005F00201F85EB51F8B5154B71
:10A27000154E1649164A174F174C01251D70C82355
:10A2800033700B701370154E1549164A78233B70C6
:10A29000322333700B70144B0021117020460522BD
:10A2A0001A70FDF729FC2946104A1148FDF7BCFB3E
:10A2B000104B20461A6840F23331BDE8F840FDF7F4
:10A2C000C5BB00BF9A5F0020905F0020965F002012
:10A2D000915F00208C5F0020485F00208E5F00208F
:10A2E000FC5E0020985F0020975F0020F9A202002A
:10A2F00038BF0200685F00202DE9F04F594B5A4AE1
:10A300005A495B4E187812780978DFF87081DFF8C7
:10A310007091DFF860A183B0FFF7C8F93388642B30
:10A3200084BF00233380002519E000210A2A83BF5F
:10A3300012FB07F3A2EB1322D2B200220A2883BF3A
:10A3400010FB07F3A0EB1323DBB200232846FFF733
:10A350003FF99AF80030EBB90135322D4BD098F81F
:10A36000003023B10A20FFF745FA0528F4D9ECB2F2
:10A37000204699F80070FFF7E3F8C1B20A29C0F34C
:10A380000722C0F30740D0D911FB07F3A1EB13213B
:10A39000C9B2CBE7C4F13100C0B299F80070FFF741
:10A3A000CFF8C1B20A2988BF11FB07F3C0F3072217
:10A3B00086BFA1EB1321C9B200210A2A84BF12FB78
:10A3C00007F3A2EB1322C0F307408CBFD2B20022E6
:10A3D0000A2888BF10FB07F3C5F1310488BFA0EB42
:10A3E0001323A4B28CBFDBB2002320460135FFF754
:10A3F000EFF8322DB3D1DFF88C80338898F8002045
:10A400004AB3DFF884A0DFF88490002407E0FFF768
:10A41000EBF898F8002033880134A2421BDD1D1BA5
:10A42000312D1449F8D8144B91F800B09AF8007007
:10A4300099F800C093F800E0624673463946284612
:10A44000BBF1000FE3D1FFF7C3F898F80020338881
:10A450000134A242E3DC0133338003B0BDE8F04FA6
:10A46000FFF790B98C5F00208E5F0020985F00207E
:10A47000925F00209A5F0020965F00208A5F002094
:10A48000FC5E0020975F0020905F0020915F00201D
:10A490002DE9F8435A4B1E78002E60D00025594F05
:10A4A000594C5A4EA84627E0A0F155039BB2C3EB86
:10A4B0008331A0F1AA0292B203EB8101C2EB823C8C
:10A4C000FF3103EB4303A92802EB8C0C89B29BB24A
:10A4D0003DD902EB42020CF1FF0392B29BB26280C3
:10A4E000A380D2B2DBB2A4F8008000212846013557
:10A4F000FFF77AF8192D1DD02B023888A6FB03230D
:10A5000000EB5310C0B2C0EB803200EB8202FF328E
:10A51000542800EB400192B2C6D8218062802846C0
:10A52000C9B2D2B200230135A4F80480FFF75CF869
:10A53000192DE1D13B88B3F5807F04BF00233B8018
:10A54000FFF720F93B8801333B80BDE8F883218089
:10A55000A380A4F80280C9B2DBB20022C6E7294F6B
:10A56000294CDFF8A880B146182529E0A0F1550351
:10A570009BB2C3EB8331A0F1AA0292B203EB81013B
:10A58000C2EB823CFF3103EB4303A92802EB8C0CA6
:10A5900089B29BB22CD902EB42020CF1FF0392B2BA
:10A5A0009BB26280A380D2B2DBB2A4F800900021FB
:10A5B0002846013DFFF718F86B1C06F58076B9D0E8
:10A5C0003888A8FB062300EB5310C0B2C0EB8032E2
:10A5D00000EB8202FF32542800EB400192B2C5D852
:10A5E00021806280A4F80490C9B2D2B20023DFE7D0
:10A5F0002180A380A4F80290C9B2DBB20022D7E781
:10A600009A5F0020925F0020005F00201F85EB51C1
:10A610001A4A1B49F8B5002313701A4D1A4A2B70B9
:10A620000B701370194D1A491A4A2B700B70137066
:10A63000194D1A491A4A1B4C2B700B7013701A498A
:10A640001A4A1B4F1B4E1C4D3B80204633802B70FB
:10A650000B701370FDF750FA1848FDF74DFA184AC1
:10A6600018480121FDF7E0F9174B20461A6840F21F
:10A670006661BDE8F840FDF7E9B900BFFC5E002067
:10A680008E5F0020975F0020985F00208C5F002085
:10A69000965F0020915F0020905F00208B5F00207C
:10A6A0008A5F0020485F00208D5F00208F5F0020C0
:10A6B000945F0020925F00209A5F0020085F0020D6
:10A6C00091A0020038BF0200685F0020184A1949B3
:10A6D000F8B500231370184D184A2B700B701370C7
:10A6E000174D1849184A2B700B701370174D1849E5
:10A6F000184A194C2B700B7013701849184A194FCF
:10A70000194E1A4D3B80204633802B700B7013700E
:10A71000FDF7F2F9164A17480121FDF785F9164BA6
:10A7200020461A680F21BDE8F840FDF78FB900BF39
:10A73000FC5E00208E5F0020975F0020985F002065
:10A740008C5F0020965F0020915F0020905F0020CA
:10A750008B5F00208A5F0020485F00208D5F002013
:10A760008F5F0020945F0020925F00209A5F00209E
:10A77000EDA0020038BF0200685F0020184A1949A6
:10A78000F8B500231370184D184A2B700B70137016
:10A79000174D1849184A2B700B701370174D184934
:10A7A000184A194C2B700B7013701849184A194F1E
:10A7B000194E1A4D3B80204633802B700B7013705E
:10A7C000FDF79AF9164A17480121FDF72DF9164BA6
:10A7D00020461A680F21BDE8F840FDF737B900BFE1
:10A7E000FC5E00208E5F0020975F0020985F0020B5
:10A7F0008C5F0020965F0020915F0020905F00201A
:10A800008B5F00208A5F0020485F00208D5F002062
:10A810008F5F0020945F0020925F00209A5F0020ED
:10A8200091A4020038BF0200685F0020F8B54B4CCD
:10A8300023780133DBB25A1E0023032AF9D8DFE85C
:10A8400002F072582D02464B46484749474A484F46
:10A85000484E01251D70C82303700B7013704649C4
:10A860004648474A00233B70337080230B700A230D
:10A87000037044483221042311702370FDF73CF922
:10A880002946414A4148FDF7CFF8414B3D481A68F7
:10A890004FF4F671BDE8F840FDF7D8B8304B3148B9
:10A8A0003149324A324F334E01251D70C82303709F
:10A8B0000B70137032493048304A78233B70322392
:10A8C00033700B7000230521037003232D48237080
:10A8D0001170FDF711F929462B4A2C48FDF7A4F811
:10A8E0002B4B28481A6840F23331BDE8F840FDF799
:10A8F000ADB81B4F1B4B1C4E1C481D491E4A012561
:10A900003D70FF271F70002333701A4E0B700370C9
:10A910001A491370802333700A230B70184A1948A0
:10A9200032210223A8E70F4E104A12490E4D124859
:10A930000B4F0023137033700D4A0B70FF260F4925
:10A940002E708025037015703B7005250C4B0D7023
:10A95000322201250B481A7025708FE76C5F0020AA
:10A960009A5F0020905F0020965F0020915F00209A
:10A970008C5F00208E5F0020985F0020975F002092
:10A98000FC5E0020485F0020F9A2020038BF0200F0
:10A99000685F002070B530490A7800230132D4B2D4
:10A9A000012C4FF0000230D0022CF7D12B480C7054
:10A9B0002B4D2C492C4A03802C482B800B70137094
:10A9C0002B4D2C4C2C492D4A03702D482B70237095
:10A9D0000B7013702B492C4A2C4E2D4D2D4C0370AF
:10A9E0002D480B70137033702B702370FDF784F8B3
:10A9F0002A4A2B480121FDF717F82A4B26481A68E6
:10AA0000A421BDE87040FDF721B8144D1F4A154838
:10AA10000C702B801370144D1449154A037015489F
:10AA20002B700B701370144D1449154A037018489D
:10AA30002B700B7013701349134A094E154D037098
:10AA400015480B70137033802B70FDF755F82146B5
:10AA5000154A1348CFE700BF6C5F0020945F0020C9
:10AA6000925F0020975F00208E5F0020985F00209B
:10AA70008C5F0020965F0020915F0020905F002097
:10AA80008B5F00208D5F00208F5F0020FC5E002028
:10AA90008A5F00209A5F0020485F0020EDA002003E
:10AAA00038BF0200685F002091A40200F8B55D4C39
:10AAB0005D4A5E485E4D0121FCF7B6FF22685D48A5
:10AAC0004FF4A031FCF7C2FF2B780133DBB25A1EE2
:10AAD0000023032AF9D8DFE802F07B5733025649F6
:10AAE000564A5748574F584E00230B70137057491A
:10AAF000574A037057480B7013705749574A0370F1
:10AB000057480B7013705749574A037057480B70DA
:10AB100013703B8033805649FF230422037055484D
:10AB20000B702A70FCF7E8FF534A54480121FCF7E8
:10AB30007BFF22684F48A421BDE8F840FCF786BFA0
:10AB40003D4A3E493E483F4F3F4E002313703F4A27
:10AB50000B7003703E493F4813703F4A0B700370FF
:10AB60003E493F4813703F4A0B7003703F494048CD
:10AB700013703D4A0B7003703B803380FF21032329
:10AB800011703C482B70CDE72B4A2C492C482D4F97
:10AB90002D4E002313702D4A0B7003702C492D4845
:10ABA00013702D4A0B7003702C492D4813702D4AD9
:10ABB0000B7003702D492C4813702D4A0B700370D5
:10ABC0003B803380FF21022311702A482B70A9E7B4
:10ABD000194A1A491A481C4E1A4F002313701B4A6F
:10ABE0000B7003701A491B4813701B4A0B700370DB
:10ABF0001A491B4813701B4A0B7003701A491C48F2
:10AC000013701A4A33800B700370FF210126194814
:10AC100011703B802E70FCF76FFF3146164A1748C3
:10AC200085E700BF685F0020A1AE020030BF0200D0
:10AC30006C5F0020085F0020FC5E0020975F002012
:10AC40008E5F0020945F0020925F0020985F0020BC
:10AC50008C5F00208B5F00208A5F00209A5F0020BD
:10AC60008D5F00208F5F0020915F0020905F0020AB
:10AC7000965F0020485F0020399F020038BF020025
:10AC80002DE9F04F6F4B704CDFF8FCC1DFF8FCE1B1
:10AC90006E486F496F4D704F704EDFF8F481DFF8EA
:10ACA000F4A1DFF8F491DFF8F4B100221A706C4BD4
:10ACB00022801A706B4B6C4CACF8002083B08EF87D
:10ACC00000201A7002700A702A703A70327088F888
:10ACD00000208AF8002089F800208BF80020FEF779
:10ACE000B3FB624A62480121FCF79EFE4FF400313B
:10ACF00022686048FCF7AAFE5F4801780131C9B2BA
:10AD00004B1E0021032BF9D8DFE803F07D5F3102F1
:10AD1000544B012104221970802302703370C82221
:10AD20004F4B8AF800204FF0000C4FF00A0E4FF006
:10AD3000320A524801918BF8002089F8002088F8E7
:10AD400000C087F800C085F800E083F800A0FCF799
:10AD5000D3FE01994A4A4B48FCF766FE22684748F1
:10AD60004FF4F67103B0BDE8F04FFCF76FBE03225D
:10AD700002703C4B4148C82201218BF800208AF820
:10AD8000002089F80020364A19704FF0780C3223E1
:10AD90004FF0000E4FF0050A1370019188F800C0C3
:10ADA0003B7086F800E085F800A0FCF7A5FE01994D
:10ADB000334A3448FCF738FE2268304840F23331D9
:10ADC00003B0BDE8F04FFCF741BE02220270254BF4
:10ADD000002201218AF8002089F8002088F800204C
:10ADE00032701F4A1970FF204FF0800C4FF00A0E8E
:10ADF00032238BF800000191204887F800C085F8C5
:10AE000000E01370A3E7174B00221A70802388F824
:10AE10000030134B89F8002001214FF0FF0C4FF058
:10AE2000050E4FF03209017001918BF800203A7045
:10AE3000124832708AF800C085F800E083F800906C
:10AE400085E700BF8F5F0020925F00208B5F0020AE
:10AE50008A5F0020975F00208E5F0020985F0020AF
:10AE6000FC5E00209A5F0020685F00202DA8020091
:10AE700030BF0200085F00206C5F0020485F0020A8
:10AE8000F9A2020038BF0200945F00208D5F00200D
:10AE90008C5F0020965F0020915F0020905F002073
:10AEA000F8B5574C23780133DBB25A1E0023032A2E
:10AEB000F9D8DFE802F07C5834025249524A53482C
:10AEC000534D544F544E00230B705449137003706C
:10AED000534A54482B700B70534D544913700370F0
:10AEE000534A54482B700B70534D544913700370E0
:10AEF000FF223B80338052482A7004230A7023705B
:10AF0000FCF7FAFD4F4A50480121FCF78DFD4F4BED
:10AF10004B481A68A421BDE8F840FCF797BD3949B1
:10AF2000394D3A4A3A483B4F3B4E00230B703B4960
:10AF30002B7013703A4D3B4A03700B703A483B49F3
:10AF40002B7013703A4D3C4A03700B703B483949E3
:10AF50002B701370FF2503223B80338003700D702C
:10AF600037482270CCE72749274D284A2848294FDF
:10AF7000294E00230B7029492B701370284D294A44
:10AF800003700B70284829492B701370284D2A4AEA
:10AF900003700B70274829492B701370FF2502227C
:10AFA0003B80338003700D7025482270A8E7154A56
:10AFB0001549164D1648174F174E00231370174AA0
:10AFC0000B702B7003701649164D17481370174AF3
:10AFD0000B702B7003701649164D18481370164AE3
:10AFE0000B702B70FF2101250370154811703B80F9
:10AFF00033802570FCF780FD2946124A124884E709
:10B000006C5F0020FC5E0020975F00208E5F0020B8
:10B01000985F0020945F0020925F00208C5F0020EA
:10B020008B5F00208A5F00209A5F00208D5F0020E8
:10B030008F5F0020915F0020905F0020965F0020CE
:10B04000485F0020399F020038BF0200685F00207F
:10B0500010B50E4C0E48FCF74FFD2046FCF74CFD9A
:10B060000C4A0D480121FCF7DFFC0C4B20461A6806
:10B070004FF4A021FCF7EAFC094A0A4B12780020A1
:10B0800053F82230BDE81040184700BF285F002069
:10B09000485F0020F59E020034BF0200685F002078
:10B0A000995F0020EC57002070B51048104CFCF759
:10B0B00023FD1048FCF720FD0F48FCF71DFD237809
:10B0C0000133DBB2032B08BF002323700B4B002599
:10B0D0001D70FEF7B9F90748FCF70EFD2278084B02
:10B0E000284653F82230BDE870401847285F0020FA
:10B0F000995F0020085F0020485F00206C5F0020FF
:10B10000EC57002010B50948FCF7F6FC0848FCF79E
:10B11000F3FC0848FCF7F0FC074A084B12780020C3
:10B1200053F82230BDE81040184700BF285F0020C8
:10B13000085F0020485F0020995F0020C058002071
:10B1400008B50548FCF7D8FC0448FCF7D5FC0448D2
:10B15000BDE80840FCF7D0BC285F0020085F002055
:10B16000485F002008B5074B074800221A70FCF71B
:10B17000C3FC0648FCF7C0FC0548BDE80840FCF7E6
:10B18000BBBC00BF6C5F0020285F0020085F002070
:10B19000485F00202DE9F0410446FEF755F9124AB8
:10B1A000124B134D134953F82430134C134F144EC4
:10B1B00000201070134A2870207008701070124D13
:10B1C000124C1349134A2870207008701070124DE9
:10B1D000124C1349134A3880287020700870107080
:10B1E0003080BDE8F0411847FC5E0020F857002091
:10B1F000975F0020985F00208E5F0020945F002002
:10B20000925F00208C5F0020965F0020915F0020FD
:10B21000905F00208B5F00208A5F00209A5F0020F3
:10B220008D5F00208F5F0020184B70B5184D194EB0
:10B23000187000232B803380174D184E2B703370FD
:10B24000174D184E2B703370174D184E2B703370EE
:10B25000174D184E2B703370174D184E184C2B701D
:10B260003370184D184B297020461A70FCF744FCB7
:10B27000164A17480121FCF7D7FB164B20461A68DF
:10B28000A421BDE87040FCF7E1BB00BF905F002047
:10B29000945F0020925F0020FC5E0020975F0020FA
:10B2A0008E5F0020985F00208C5F00208B5F002065
:10B2B0008A5F00209A5F00208D5F00208F5F002052
:10B2C000485F0020915F0020965F0020399F0200B8
:10B2D00038BF0200685F0020194A1A49F8B50023F8
:10B2E0001370194D194A0B7019492B701370194DB1
:10B2F000194A0B7019492B701370194D194A0B70AC
:10B30000194C1A492B701370194F1A4A1A4E1B4DBB
:10B310000B702046FF213B8033802B701170FCF7AF
:10B32000EBFB174A17480121FCF77EFB164B204622
:10B330001A6840F69A11BDE8F840FCF787BB00BFD9
:10B34000FC5E0020975F00208E5F0020985F002049
:10B350008C5F0020915F0020905F00208B5F0020B9
:10B360008A5F00209A5F0020485F00208D5F0020E8
:10B37000945F0020965F0020925F00208F5F002086
:10B38000E59F020038BF0200685F0020F8B5354D28
:10B39000354A36480121FCF747FB2A6834484FF408
:10B3A0008031FCF753FB33490A7800230132D4B2D1
:10B3B000012C4FF000022FD0022CF7D12E4A2F483B
:10B3C0000C7013702E4C2F492F4A03702F48237096
:10B3D0000B7013702E4C2F492F4A03702F48237087
:10B3E0000B7013702E492F4A2F4F304E304C037084
:10B3F00030480B7013703B8033802370FCF77CFB6C
:10B400002D4A2E480121FCF70FFB2A682948A42168
:10B41000BDE8F840FCF71ABB2348174A03801748D9
:10B420000C7013701649174A037017480B7013708D
:10B430001649174A037017480B7013701649174ABC
:10B4400003701B480B7013701549164A174E037092
:10B4500018480B7013703380FCF74EFB2146184AD6
:10B460001648D0E7685F002095A9020030BF0200AF
:10B47000085F00206C5F0020FC5E0020975F0020CA
:10B480008E5F0020985F00208C5F0020965F002078
:10B49000915F0020905F00208B5F00208A5F00207A
:10B4A0008D5F00208F5F0020945F0020925F00205E
:10B4B0009A5F0020485F0020EDA0020038BF020024
:10B4C00091A4020038B50120FAF72AFFFEF7C0F96F
:10B4D000FEF74CF8FDF792FF0024002220461146AB
:10B4E000FF230134FEF774F8322CF6D1084DFEF735
:10B4F00049F94FF47A7445F001054FF47A40A847B2
:10B50000013CFAD1FFF7A4FDFEF7A6FBFEE700BF62
:10B5100040BF020008B5074B044613B10021AFF34A
:10B520000080054B1868836A03B19847204600F0F5
:10B53000C7F800BF0000000048BF020070B50D4E04
:10B540000D4CA41BA4100025A54209D10B4E0C4C98
:10B5500000F0A6FCA41BA4100025A54205D170BDD7
:10B5600056F8253098470135EEE756F825309847CC
:10B570000135F2E7305900203059002030590020C1
:10B5800034590020024B0146186800F017B800BF7C
:10B59000CC58002010B5431E0A44914200D110BD82
:10B5A00011F8014B03F8014FF7E7024403469342B9
:10B5B00000D1704703F8011BF9E7000070B5CD1CFE
:10B5C00025F0030508350C2D38BF0C25002D064647
:10B5D00001DBA94203D90C233360002070BD00F0C9
:10B5E0005FF8214A1468214691B9204C23681BB9A1
:10B5F000304600F03DF820602946304600F038F82B
:10B60000431C24D10C233360304600F04AF8E4E7B1
:10B610000B685B1B18D40B2B0FD90B60CD50CC18CB
:10B62000304600F03EF804F10B00231D20F0070027
:10B63000C31AD3D05A42E250D0E78C424B6816BFAF
:10B64000636013600C46EBE70C464968CCE7C41C0A
:10B6500024F00304A04205D0211A304600F008F877
:10B660000130CFD02560DBE7705F0020745F0020E1
:10B6700038B5064C002305460846236000F012F852
:10B68000431C02D1236803B12B6038BD9C5F0020AE
:10B69000034613F8012B002AFBD1181A0138704712
:10B6A00070477047044A05491368002B08BF0B46D2
:10B6B0001844106018467047785F0020A05F002093
:10B6C000FEE700BF81F0004102E000BF83F00043CD
:10B6D00030B54FEA41044FEA430594EA050F08BF2D
:10B6E00090EA020F1FBF54EA000C55EA020C7FEAF1
:10B6F000645C7FEA655C00F0E2804FEA5454D4EB6E
:10B700005555B8BF6D420CDD2C4480EA020281EA37
:10B71000030382EA000083EA010180EA020281EA6F
:10B720000303362D88BF30BD11F0004F4FEA0131C1
:10B730004FF4801C4CEA113102D0404261EB4101D0
:10B7400013F0004F4FEA03334CEA133302D0524256
:10B7500063EB430394EA050F00F0A780A4F1010412
:10B76000D5F1200E0DDB02FA0EFC22FA05F280184C
:10B7700041F1000103FA0EF2801843FA05F3594132
:10B780000EE0A5F120050EF1200E012A03FA0EFCB1
:10B7900028BF4CF0020C43FA05F3C01851EBE371DB
:10B7A00001F0004507D54FF0000EDCF1000C7EEBF8
:10B7B00000006EEB0101B1F5801F1BD3B1F5001F36
:10B7C0000CD349085FEA30004FEA3C0C04F1010455
:10B7D0004FEA445212F5800F80F09A80BCF1004F7E
:10B7E00008BF5FEA500C50F1000041EB045141EA00
:10B7F000050130BD5FEA4C0C404141EB010111F401
:10B80000801FA4F10104E9D191F0000F04BF0146AB
:10B810000020B1FA81F308BF2033A3F10B03B3F189
:10B8200020020CDA0C3208DD02F1140CC2F10C0219
:10B8300001FA0CF021FA02F10CE002F11402D8BF77
:10B84000C2F1200C01FA02F120FA0CFCDCBF41EA43
:10B850000C019040E41AA2BF01EB0451294330BD12
:10B860006FEA04041F3C1CDA0C340EDC04F11404EF
:10B87000C4F1200220FA04F001FA02F340EA0300C6
:10B8800021FA04F345EA030130BDC4F10C04C4F10C
:10B89000200220FA02F001FA04F340EA03002946EC
:10B8A00030BD21FA04F0294630BD94F0000F83F436
:10B8B000801306BF81F480110134013D4EE77FEA19
:10B8C000645C18BF7FEA655C29D094EA050F08BF65
:10B8D00090EA020F05D054EA000C04BF1946104646
:10B8E00030BD91EA030F1EBF0021002030BD5FEA8A
:10B8F000545C05D14000494128BF41F0004130BDB2
:10B9000014F580043CBF01F5801130BD01F0004505
:10B9100045F0FE4141F470014FF0000030BD7FEA78
:10B92000645C1ABF194610467FEA655C1CBF0B4673
:10B93000024650EA013406BF52EA033591EA030F8A
:10B9400041F4002130BD00BF90F0000F04BF002182
:10B95000704730B54FF4806404F132044FF00005B5
:10B960004FF0000150E700BF90F0000F04BF00212E
:10B97000704730B54FF4806404F1320410F0004594
:10B9800048BF40424FF000013EE700BF42004FEA8F
:10B99000E2014FEA31014FEA02701FBF12F07F430C
:10B9A00093F07F4F81F06051704732F07F4208BFC3
:10B9B000704793F07F4F04BF41F40021704730B5CA
:10B9C0004FF4607401F0004521F000411CE700BF16
:10B9D00050EA010208BF704730B54FF000050AE099
:10B9E00050EA010208BF704730B511F0004502D59A
:10B9F000404261EB41014FF4806404F132045FEA9C
:10BA0000915C3FF4D8AE4FF003025FEADC0C18BF44
:10BA100003325FEADC0C18BF033202EBDC02C2F136
:10BA2000200300FA03FC20FA02F001FA03FE40EAC8
:10BA30000E0021FA02F11444BDE600BF70B54FF0CC
:10BA4000FF0C4CF4E06C1CEA11541DBF1CEA1355AA
:10BA500094EA0C0F95EA0C0F00F0DEF82C4481EA12
:10BA6000030621EA4C5123EA4C5350EA013518BF32
:10BA700052EA033541F4801143F4801338D0A0FB1F
:10BA800002CE4FF00005E1FB02E506F00042E0FBCC
:10BA900003E54FF00006E1FB03569CF0000F18BFD2
:10BAA0004EF0010EA4F1FF04B6F5007F64F540747A
:10BAB00004D25FEA4E0E6D4146EB060642EAC6210D
:10BAC00041EA55514FEAC52040EA5E504FEACE2E7A
:10BAD000B4F1FD0C88BFBCF5E06F1ED8BEF1004F7D
